{
  "address": "0x77a357bF8cfc6EBB9c8879998D85002Dd91d5FcF",
  "abi": [
    {
      "inputs": [],
      "stateMutability": "nonpayable",
      "type": "constructor"
    },
    {
      "anonymous": false,
      "inputs": [
        {
          "indexed": true,
          "internalType": "address",
          "name": "account",
          "type": "address"
        },
        {
          "indexed": true,
          "internalType": "address",
          "name": "operator",
          "type": "address"
        },
        {
          "indexed": false,
          "internalType": "bool",
          "name": "approved",
          "type": "bool"
        }
      ],
      "name": "ApprovalForAll",
      "type": "event"
    },
    {
      "anonymous": false,
      "inputs": [
        {
          "indexed": false,
          "internalType": "address",
          "name": "account",
          "type": "address"
        },
        {
          "indexed": false,
          "internalType": "uint256",
          "name": "id",
          "type": "uint256"
        },
        {
          "indexed": false,
          "internalType": "uint256",
          "name": "amount",
          "type": "uint256"
        },
        {
          "indexed": false,
          "internalType": "bytes",
          "name": "data",
          "type": "bytes"
        }
      ],
      "name": "BoughtMint",
      "type": "event"
    },
    {
      "anonymous": false,
      "inputs": [
        {
          "indexed": false,
          "internalType": "address",
          "name": "to",
          "type": "address"
        },
        {
          "indexed": false,
          "internalType": "uint256[]",
          "name": "ids",
          "type": "uint256[]"
        },
        {
          "indexed": false,
          "internalType": "uint256[]",
          "name": "amounts",
          "type": "uint256[]"
        },
        {
          "indexed": false,
          "internalType": "bytes",
          "name": "data",
          "type": "bytes"
        }
      ],
      "name": "BoughtMintBanch",
      "type": "event"
    },
    {
      "anonymous": false,
      "inputs": [
        {
          "indexed": false,
          "internalType": "address",
          "name": "account",
          "type": "address"
        },
        {
          "indexed": false,
          "internalType": "uint256",
          "name": "id",
          "type": "uint256"
        },
        {
          "indexed": false,
          "internalType": "uint256",
          "name": "amount",
          "type": "uint256"
        },
        {
          "indexed": false,
          "internalType": "string",
          "name": "uri",
          "type": "string"
        },
        {
          "indexed": false,
          "internalType": "bytes",
          "name": "data",
          "type": "bytes"
        }
      ],
      "name": "Minted",
      "type": "event"
    },
    {
      "anonymous": false,
      "inputs": [
        {
          "indexed": false,
          "internalType": "address",
          "name": "to",
          "type": "address"
        },
        {
          "indexed": false,
          "internalType": "uint256[]",
          "name": "amounts",
          "type": "uint256[]"
        },
        {
          "indexed": false,
          "internalType": "string[]",
          "name": "uris",
          "type": "string[]"
        },
        {
          "indexed": false,
          "internalType": "bytes",
          "name": "data",
          "type": "bytes"
        }
      ],
      "name": "MintedBanch",
      "type": "event"
    },
    {
      "anonymous": false,
      "inputs": [
        {
          "indexed": false,
          "internalType": "address",
          "name": "account",
          "type": "address"
        }
      ],
      "name": "Paused",
      "type": "event"
    },
    {
      "anonymous": false,
      "inputs": [
        {
          "indexed": true,
          "internalType": "bytes32",
          "name": "role",
          "type": "bytes32"
        },
        {
          "indexed": true,
          "internalType": "bytes32",
          "name": "previousAdminRole",
          "type": "bytes32"
        },
        {
          "indexed": true,
          "internalType": "bytes32",
          "name": "newAdminRole",
          "type": "bytes32"
        }
      ],
      "name": "RoleAdminChanged",
      "type": "event"
    },
    {
      "anonymous": false,
      "inputs": [
        {
          "indexed": true,
          "internalType": "bytes32",
          "name": "role",
          "type": "bytes32"
        },
        {
          "indexed": true,
          "internalType": "address",
          "name": "account",
          "type": "address"
        },
        {
          "indexed": true,
          "internalType": "address",
          "name": "sender",
          "type": "address"
        }
      ],
      "name": "RoleGranted",
      "type": "event"
    },
    {
      "anonymous": false,
      "inputs": [
        {
          "indexed": true,
          "internalType": "bytes32",
          "name": "role",
          "type": "bytes32"
        },
        {
          "indexed": true,
          "internalType": "address",
          "name": "account",
          "type": "address"
        },
        {
          "indexed": true,
          "internalType": "address",
          "name": "sender",
          "type": "address"
        }
      ],
      "name": "RoleRevoked",
      "type": "event"
    },
    {
      "anonymous": false,
      "inputs": [
        {
          "indexed": false,
          "internalType": "string",
          "name": "newBaseURI",
          "type": "string"
        }
      ],
      "name": "SetBaseURI",
      "type": "event"
    },
    {
      "anonymous": false,
      "inputs": [
        {
          "indexed": false,
          "internalType": "uint256",
          "name": "tokenId",
          "type": "uint256"
        },
        {
          "indexed": false,
          "internalType": "string",
          "name": "newTokenUri",
          "type": "string"
        }
      ],
      "name": "SetTokenURI",
      "type": "event"
    },
    {
      "anonymous": false,
      "inputs": [
        {
          "indexed": true,
          "internalType": "address",
          "name": "operator",
          "type": "address"
        },
        {
          "indexed": true,
          "internalType": "address",
          "name": "from",
          "type": "address"
        },
        {
          "indexed": true,
          "internalType": "address",
          "name": "to",
          "type": "address"
        },
        {
          "indexed": false,
          "internalType": "uint256[]",
          "name": "ids",
          "type": "uint256[]"
        },
        {
          "indexed": false,
          "internalType": "uint256[]",
          "name": "values",
          "type": "uint256[]"
        }
      ],
      "name": "TransferBatch",
      "type": "event"
    },
    {
      "anonymous": false,
      "inputs": [
        {
          "indexed": true,
          "internalType": "address",
          "name": "operator",
          "type": "address"
        },
        {
          "indexed": true,
          "internalType": "address",
          "name": "from",
          "type": "address"
        },
        {
          "indexed": true,
          "internalType": "address",
          "name": "to",
          "type": "address"
        },
        {
          "indexed": false,
          "internalType": "uint256",
          "name": "id",
          "type": "uint256"
        },
        {
          "indexed": false,
          "internalType": "uint256",
          "name": "value",
          "type": "uint256"
        }
      ],
      "name": "TransferSingle",
      "type": "event"
    },
    {
      "anonymous": false,
      "inputs": [
        {
          "indexed": false,
          "internalType": "string",
          "name": "value",
          "type": "string"
        },
        {
          "indexed": true,
          "internalType": "uint256",
          "name": "id",
          "type": "uint256"
        }
      ],
      "name": "URI",
      "type": "event"
    },
    {
      "anonymous": false,
      "inputs": [
        {
          "indexed": false,
          "internalType": "address",
          "name": "account",
          "type": "address"
        }
      ],
      "name": "Unpaused",
      "type": "event"
    },
    {
      "inputs": [],
      "name": "DEFAULT_ADMIN_ROLE",
      "outputs": [
        {
          "internalType": "bytes32",
          "name": "",
          "type": "bytes32"
        }
      ],
      "stateMutability": "view",
      "type": "function"
    },
    {
      "inputs": [],
      "name": "MINTER_ROLE",
      "outputs": [
        {
          "internalType": "bytes32",
          "name": "",
          "type": "bytes32"
        }
      ],
      "stateMutability": "view",
      "type": "function"
    },
    {
      "inputs": [],
      "name": "PAUSER_ROLE",
      "outputs": [
        {
          "internalType": "bytes32",
          "name": "",
          "type": "bytes32"
        }
      ],
      "stateMutability": "view",
      "type": "function"
    },
    {
      "inputs": [],
      "name": "URI_SETTER_ROLE",
      "outputs": [
        {
          "internalType": "bytes32",
          "name": "",
          "type": "bytes32"
        }
      ],
      "stateMutability": "view",
      "type": "function"
    },
    {
      "inputs": [
        {
          "internalType": "address",
          "name": "account",
          "type": "address"
        },
        {
          "internalType": "uint256",
          "name": "id",
          "type": "uint256"
        }
      ],
      "name": "balanceOf",
      "outputs": [
        {
          "internalType": "uint256",
          "name": "",
          "type": "uint256"
        }
      ],
      "stateMutability": "view",
      "type": "function"
    },
    {
      "inputs": [
        {
          "internalType": "address[]",
          "name": "accounts",
          "type": "address[]"
        },
        {
          "internalType": "uint256[]",
          "name": "ids",
          "type": "uint256[]"
        }
      ],
      "name": "balanceOfBatch",
      "outputs": [
        {
          "internalType": "uint256[]",
          "name": "",
          "type": "uint256[]"
        }
      ],
      "stateMutability": "view",
      "type": "function"
    },
    {
      "inputs": [
        {
          "internalType": "address",
          "name": "account",
          "type": "address"
        },
        {
          "internalType": "uint256",
          "name": "id",
          "type": "uint256"
        },
        {
          "internalType": "uint256",
          "name": "value",
          "type": "uint256"
        }
      ],
      "name": "burn",
      "outputs": [],
      "stateMutability": "nonpayable",
      "type": "function"
    },
    {
      "inputs": [
        {
          "internalType": "address",
          "name": "account",
          "type": "address"
        },
        {
          "internalType": "uint256[]",
          "name": "ids",
          "type": "uint256[]"
        },
        {
          "internalType": "uint256[]",
          "name": "values",
          "type": "uint256[]"
        }
      ],
      "name": "burnBatch",
      "outputs": [],
      "stateMutability": "nonpayable",
      "type": "function"
    },
    {
      "inputs": [
        {
          "internalType": "uint256",
          "name": "id",
          "type": "uint256"
        }
      ],
      "name": "exists",
      "outputs": [
        {
          "internalType": "bool",
          "name": "",
          "type": "bool"
        }
      ],
      "stateMutability": "view",
      "type": "function"
    },
    {
      "inputs": [],
      "name": "getCurrentId",
      "outputs": [
        {
          "internalType": "uint256",
          "name": "",
          "type": "uint256"
        }
      ],
      "stateMutability": "view",
      "type": "function"
    },
    {
      "inputs": [
        {
          "internalType": "bytes32",
          "name": "role",
          "type": "bytes32"
        }
      ],
      "name": "getRoleAdmin",
      "outputs": [
        {
          "internalType": "bytes32",
          "name": "",
          "type": "bytes32"
        }
      ],
      "stateMutability": "view",
      "type": "function"
    },
    {
      "inputs": [
        {
          "internalType": "bytes32",
          "name": "role",
          "type": "bytes32"
        },
        {
          "internalType": "address",
          "name": "account",
          "type": "address"
        }
      ],
      "name": "grantRole",
      "outputs": [],
      "stateMutability": "nonpayable",
      "type": "function"
    },
    {
      "inputs": [
        {
          "internalType": "bytes32",
          "name": "role",
          "type": "bytes32"
        },
        {
          "internalType": "address",
          "name": "account",
          "type": "address"
        }
      ],
      "name": "hasRole",
      "outputs": [
        {
          "internalType": "bool",
          "name": "",
          "type": "bool"
        }
      ],
      "stateMutability": "view",
      "type": "function"
    },
    {
      "inputs": [
        {
          "internalType": "address",
          "name": "account",
          "type": "address"
        },
        {
          "internalType": "address",
          "name": "operator",
          "type": "address"
        }
      ],
      "name": "isApprovedForAll",
      "outputs": [
        {
          "internalType": "bool",
          "name": "",
          "type": "bool"
        }
      ],
      "stateMutability": "view",
      "type": "function"
    },
    {
      "inputs": [
        {
          "internalType": "uint256",
          "name": "tokenId",
          "type": "uint256"
        }
      ],
      "name": "isExists",
      "outputs": [
        {
          "internalType": "bool",
          "name": "",
          "type": "bool"
        }
      ],
      "stateMutability": "view",
      "type": "function"
    },
    {
      "inputs": [
        {
          "internalType": "address",
          "name": "account",
          "type": "address"
        },
        {
          "internalType": "uint256",
          "name": "amount",
          "type": "uint256"
        },
        {
          "internalType": "string",
          "name": "tokenUri",
          "type": "string"
        },
        {
          "internalType": "bytes",
          "name": "data",
          "type": "bytes"
        }
      ],
      "name": "mint",
      "outputs": [],
      "stateMutability": "nonpayable",
      "type": "function"
    },
    {
      "inputs": [
        {
          "internalType": "address",
          "name": "to",
          "type": "address"
        },
        {
          "internalType": "uint256[]",
          "name": "amounts",
          "type": "uint256[]"
        },
        {
          "internalType": "string[]",
          "name": "uris",
          "type": "string[]"
        },
        {
          "internalType": "bytes",
          "name": "data",
          "type": "bytes"
        }
      ],
      "name": "mintBatch",
      "outputs": [],
      "stateMutability": "nonpayable",
      "type": "function"
    },
    {
      "inputs": [
        {
          "internalType": "address",
          "name": "account",
          "type": "address"
        },
        {
          "internalType": "uint256",
          "name": "id",
          "type": "uint256"
        },
        {
          "internalType": "uint256",
          "name": "amount",
          "type": "uint256"
        },
        {
          "internalType": "bytes",
          "name": "data",
          "type": "bytes"
        }
      ],
      "name": "mintExists",
      "outputs": [],
      "stateMutability": "nonpayable",
      "type": "function"
    },
    {
      "inputs": [
        {
          "internalType": "address",
          "name": "to",
          "type": "address"
        },
        {
          "internalType": "uint256[]",
          "name": "ids",
          "type": "uint256[]"
        },
        {
          "internalType": "uint256[]",
          "name": "amounts",
          "type": "uint256[]"
        },
        {
          "internalType": "bytes",
          "name": "data",
          "type": "bytes"
        }
      ],
      "name": "mintExistsBatch",
      "outputs": [],
      "stateMutability": "nonpayable",
      "type": "function"
    },
    {
      "inputs": [],
      "name": "pause",
      "outputs": [],
      "stateMutability": "nonpayable",
      "type": "function"
    },
    {
      "inputs": [],
      "name": "paused",
      "outputs": [
        {
          "internalType": "bool",
          "name": "",
          "type": "bool"
        }
      ],
      "stateMutability": "view",
      "type": "function"
    },
    {
      "inputs": [
        {
          "internalType": "bytes32",
          "name": "role",
          "type": "bytes32"
        },
        {
          "internalType": "address",
          "name": "account",
          "type": "address"
        }
      ],
      "name": "renounceRole",
      "outputs": [],
      "stateMutability": "nonpayable",
      "type": "function"
    },
    {
      "inputs": [
        {
          "internalType": "bytes32",
          "name": "role",
          "type": "bytes32"
        },
        {
          "internalType": "address",
          "name": "account",
          "type": "address"
        }
      ],
      "name": "revokeRole",
      "outputs": [],
      "stateMutability": "nonpayable",
      "type": "function"
    },
    {
      "inputs": [
        {
          "internalType": "address",
          "name": "from",
          "type": "address"
        },
        {
          "internalType": "address",
          "name": "to",
          "type": "address"
        },
        {
          "internalType": "uint256[]",
          "name": "ids",
          "type": "uint256[]"
        },
        {
          "internalType": "uint256[]",
          "name": "amounts",
          "type": "uint256[]"
        },
        {
          "internalType": "bytes",
          "name": "data",
          "type": "bytes"
        }
      ],
      "name": "safeBatchTransferFrom",
      "outputs": [],
      "stateMutability": "nonpayable",
      "type": "function"
    },
    {
      "inputs": [
        {
          "internalType": "address",
          "name": "from",
          "type": "address"
        },
        {
          "internalType": "address",
          "name": "to",
          "type": "address"
        },
        {
          "internalType": "uint256",
          "name": "id",
          "type": "uint256"
        },
        {
          "internalType": "uint256",
          "name": "amount",
          "type": "uint256"
        },
        {
          "internalType": "bytes",
          "name": "data",
          "type": "bytes"
        }
      ],
      "name": "safeTransferFrom",
      "outputs": [],
      "stateMutability": "nonpayable",
      "type": "function"
    },
    {
      "inputs": [
        {
          "internalType": "address",
          "name": "operator",
          "type": "address"
        },
        {
          "internalType": "bool",
          "name": "approved",
          "type": "bool"
        }
      ],
      "name": "setApprovalForAll",
      "outputs": [],
      "stateMutability": "nonpayable",
      "type": "function"
    },
    {
      "inputs": [
        {
          "internalType": "uint256",
          "name": "tokenId",
          "type": "uint256"
        },
        {
          "internalType": "string",
          "name": "newTokenUri",
          "type": "string"
        }
      ],
      "name": "setTokenURI",
      "outputs": [
        {
          "internalType": "bool",
          "name": "",
          "type": "bool"
        }
      ],
      "stateMutability": "nonpayable",
      "type": "function"
    },
    {
      "inputs": [
        {
          "internalType": "string",
          "name": "newuri",
          "type": "string"
        }
      ],
      "name": "setURI",
      "outputs": [],
      "stateMutability": "nonpayable",
      "type": "function"
    },
    {
      "inputs": [
        {
          "internalType": "bytes4",
          "name": "interfaceId",
          "type": "bytes4"
        }
      ],
      "name": "supportsInterface",
      "outputs": [
        {
          "internalType": "bool",
          "name": "",
          "type": "bool"
        }
      ],
      "stateMutability": "view",
      "type": "function"
    },
    {
      "inputs": [
        {
          "internalType": "uint256",
          "name": "tokenId",
          "type": "uint256"
        }
      ],
      "name": "tokenURI",
      "outputs": [
        {
          "internalType": "string",
          "name": "",
          "type": "string"
        }
      ],
      "stateMutability": "view",
      "type": "function"
    },
    {
      "inputs": [
        {
          "internalType": "uint256",
          "name": "id",
          "type": "uint256"
        }
      ],
      "name": "totalSupply",
      "outputs": [
        {
          "internalType": "uint256",
          "name": "",
          "type": "uint256"
        }
      ],
      "stateMutability": "view",
      "type": "function"
    },
    {
      "inputs": [],
      "name": "unpause",
      "outputs": [],
      "stateMutability": "nonpayable",
      "type": "function"
    },
    {
      "inputs": [
        {
          "internalType": "uint256",
          "name": "tokenId",
          "type": "uint256"
        }
      ],
      "name": "uri",
      "outputs": [
        {
          "internalType": "string",
          "name": "",
          "type": "string"
        }
      ],
      "stateMutability": "view",
      "type": "function"
    }
  ],
  "transactionHash": "0x413bb431a8b9770c5868cd66c7ba96d8ca9a99598852302c2d53fbf08f21fd59",
  "args": [],
  "solcInputHash": "d934b6087994fb9e78cea3e5744316fe",
  "bytecode": "0x60c06040526007608081905266697066733a2f2f60c81b60a09081526200002a91600691906200023c565b503480156200003857600080fd5b50600680546200004890620002e2565b80601f01602080910402602001604051908101604052809291908181526020018280546200007690620002e2565b8015620000c75780601f106200009b57610100808354040283529160200191620000c7565b820191906000526020600020905b815481529060010190602001808311620000a957829003601f168201915b5050505050620000dd816200017f60201b60201c565b506004805460ff19169055620000f560003362000198565b620001217f7804d923f43a17d325d77e781528e0793b2edd9890ab45fc64efd7b4b427744c3362000198565b6200014d7f65d7a28e3265b37a6474929f336521b332c1681b933f6cb9f3376673440d862a3362000198565b620001797f9f2df0fed2c77648de5860a4cc508cd0818c85b8b8a1ab4ceeef8d981c8956a63362000198565b6200031f565b8051620001949060029060208401906200023c565b5050565b60008281526003602090815260408083206001600160a01b038516845290915290205460ff16620001945760008281526003602090815260408083206001600160a01b03851684529091529020805460ff19166001179055620001f83390565b6001600160a01b0316816001600160a01b0316837f2f8788117e7eff1d82e926ec794901d17c78024a50270940304540a733656f0d60405160405180910390a45050565b8280546200024a90620002e2565b90600052602060002090601f0160209004810192826200026e5760008555620002b9565b82601f106200028957805160ff1916838001178555620002b9565b82800160010185558215620002b9579182015b82811115620002b95782518255916020019190600101906200029c565b50620002c7929150620002cb565b5090565b5b80821115620002c75760008155600101620002cc565b600181811c90821680620002f757607f821691505b602082108114156200031957634e487b7160e01b600052602260045260246000fd5b50919050565b612ffa806200032f6000396000f3fe608060405234801561001057600080fd5b50600436106101fa5760003560e01c80636c1438621161011a578063c87b56dd116100ad578063e00529061161007c578063e005290614610460578063e63ab1e914610473578063e985e9c51461049a578063f242432a146104d6578063f5298aca146104e957600080fd5b8063c87b56dd14610412578063d2b04fd614610425578063d539139314610438578063d547741f1461044d57600080fd5b80639d36788e116100e95780639d36788e146103c4578063a217fddf146103d7578063a22cb465146103df578063bd85b039146103f257600080fd5b80636c1438621461037a5780637f345710146103825780638456cb59146103a957806391d14854146103b157600080fd5b80632f2ff15d116101925780634e1273f4116101615780634e1273f41461031a5780634f558e791461033a5780635c975abb1461035c5780636b20c4541461036757600080fd5b80632f2ff15d146102d957806336568abe146102ec5780633f4ba83a146102ff578063445e3fad1461030757600080fd5b8063162094c4116101ce578063162094c41461027d578063193d911014610290578063248a9ca3146102a35780632eb2c2d6146102c657600080fd5b8062fdd58e146101ff57806301ffc9a71461022557806302fe5305146102485780630e89341c1461025d575b600080fd5b61021261020d3660046125ce565b6104fc565b6040519081526020015b60405180910390f35b6102386102333660046127cb565b610593565b604051901515815260200161021c565b61025b610256366004612803565b6105a4565b005b61027061026b366004612791565b610627565b60405161021c9190612ae3565b61023861028b36600461283d565b610702565b61025b61029e366004612675565b610792565b6102126102b1366004612791565b60009081526003602052604090206001015490565b61025b6102d4366004612283565b610819565b61025b6102e73660046127a9565b6108a9565b61025b6102fa3660046127a9565b6108d4565b61025b610952565b61025b61031536600461250c565b610988565b61032d6103283660046126c7565b610a67565b60405161021c9190612aa2565b610238610348366004612791565b600090815260056020526040902054151590565b60045460ff16610238565b61025b61037536600461249c565b610bc8565b610212610c0b565b6102127f7804d923f43a17d325d77e781528e0793b2edd9890ab45fc64efd7b4b427744c81565b61025b610c1b565b6102386103bf3660046127a9565b610c4e565b6102386103d2366004612791565b610c79565b610212600081565b61025b6103ed366004612594565b610c8f565b610212610400366004612791565b60009081526005602052604090205490565b610270610420366004612791565b610c9a565b61025b6104333660046125f7565b610ca5565b610212600080516020612fa583398151915281565b61025b61045b3660046127a9565b610d25565b61025b61046e36600461238a565b610d4b565b6102127f65d7a28e3265b37a6474929f336521b332c1681b933f6cb9f3376673440d862a81565b6102386104a8366004612251565b6001600160a01b03918216600090815260016020908152604080832093909416825291909152205460ff1690565b61025b6104e4366004612328565b610e8a565b61025b6104f7366004612643565b610ecf565b60006001600160a01b03831661056d5760405162461bcd60e51b815260206004820152602b60248201527f455243313135353a2062616c616e636520717565727920666f7220746865207a60448201526a65726f206164647265737360a81b60648201526084015b60405180910390fd5b506000908152602081815260408083206001600160a01b03949094168352929052205490565b600061059e82610f12565b92915050565b7f7804d923f43a17d325d77e781528e0793b2edd9890ab45fc64efd7b4b427744c6105cf8133610f37565b81516105e29060069060208501906120ba565b506105ec82610f9b565b7f23c8c9488efebfd474e85a7956de6f39b17c7ab88502d42a623db2d8e382bbaa8260405161061b9190612ae3565b60405180910390a15050565b60008181526005602052604090205460609061069c5760405162461bcd60e51b815260206004820152602e60248201527f45384d696e7461626c654e66743a2055524920717565727920666f72206e6f6e60448201526d32bc34b9ba32b73a103a37b5b2b760911b6064820152608401610564565b6000600680546106ab90612e3f565b9050116106c7576040518060200160405280600081525061059e565b6006600860008481526020019081526020016000206040516020016106ed929190612975565b60405160208183030381529060405292915050565b60007f7804d923f43a17d325d77e781528e0793b2edd9890ab45fc64efd7b4b427744c61072f8133610f37565b6000848152600860209081526040909120845161074e928601906120ba565b507fd2d827dddfc9c9a02afc5fc68d3251684b36e213a7999ebd90a861f25df4077e8484604051610780929190612d6e565b60405180910390a15060019392505050565b600080516020612fa58339815191526107ab8133610f37565b6000848152600560205260409020546108065760405162461bcd60e51b815260206004820152601f60248201527f45384d696e7461626c654e66743a20746f6b656e20646f6e74206578657374006044820152606401610564565b61081285858585610fae565b5050505050565b6001600160a01b038516331480610835575061083585336104a8565b61089c5760405162461bcd60e51b815260206004820152603260248201527f455243313135353a207472616e736665722063616c6c6572206973206e6f74206044820152711bdddb995c881b9bdc88185c1c1c9bdd995960721b6064820152608401610564565b6108128585858585611084565b6000828152600360205260409020600101546108c58133610f37565b6108cf8383611242565b505050565b6001600160a01b03811633146109445760405162461bcd60e51b815260206004820152602f60248201527f416363657373436f6e74726f6c3a2063616e206f6e6c792072656e6f756e636560448201526e103937b632b9903337b91039b2b63360891b6064820152608401610564565b61094e82826112c8565b5050565b7f65d7a28e3265b37a6474929f336521b332c1681b933f6cb9f3376673440d862a61097d8133610f37565b61098561132f565b50565b600080516020612fa58339815191526109a18133610f37565b60005b8451811015610a5a576109ec8582815181106109d057634e487b7160e01b600052603260045260246000fd5b6020026020010151600090815260056020526040902054151590565b610a485760405162461bcd60e51b815260206004820152602760248201527f45384d696e7461626c654e66743a206f6e65206f6620746f6b656e7320646f6e6044820152661d08195e1a5cdd60ca1b6064820152608401610564565b80610a5281612ea6565b9150506109a4565b50610812858585856113c2565b60608151835114610acc5760405162461bcd60e51b815260206004820152602960248201527f455243313135353a206163636f756e747320616e6420696473206c656e677468604482015268040dad2e6dac2e8c6d60bb1b6064820152608401610564565b600083516001600160401b03811115610af557634e487b7160e01b600052604160045260246000fd5b604051908082528060200260200182016040528015610b1e578160200160208202803683370190505b50905060005b8451811015610bc057610b85858281518110610b5057634e487b7160e01b600052603260045260246000fd5b6020026020010151858381518110610b7857634e487b7160e01b600052603260045260246000fd5b60200260200101516104fc565b828281518110610ba557634e487b7160e01b600052603260045260246000fd5b6020908102919091010152610bb981612ea6565b9050610b24565b509392505050565b6001600160a01b038316331480610be45750610be483336104a8565b610c005760405162461bcd60e51b815260040161056490612b82565b6108cf838383611538565b6000610c1660075490565b905090565b7f65d7a28e3265b37a6474929f336521b332c1681b933f6cb9f3376673440d862a610c468133610f37565b6109856116e2565b60009182526003602090815260408084206001600160a01b0393909316845291905290205460ff1690565b600081815260056020526040812054151561059e565b61094e33838361175d565b606061059e82610627565b600080516020612fa5833981519152610cbe8133610f37565b6000610cc960075490565b60008181526005602052604090205490915015610cf85760405162461bcd60e51b815260040161056490612bcb565b610d0486828786610fae565b610d0e8185610702565b50610d1d600780546001019055565b505050505050565b600082815260036020526040902060010154610d418133610f37565b6108cf83836112c8565b600080516020612fa5833981519152610d648133610f37565b600083516001600160401b03811115610d8d57634e487b7160e01b600052604160045260246000fd5b604051908082528060200260200182016040528015610db6578160200160208202803683370190505b50905060005b8151811015610e7d576000610dd060075490565b9050610de0600780546001019055565b60008181526005602052604090205415610e0c5760405162461bcd60e51b815260040161056490612bcb565b610e3d81878481518110610e3057634e487b7160e01b600052603260045260246000fd5b6020026020010151610702565b5080838381518110610e5f57634e487b7160e01b600052603260045260246000fd5b60209081029190910101525080610e7581612ea6565b915050610dbc565b50610d1d868287866113c2565b6001600160a01b038516331480610ea65750610ea685336104a8565b610ec25760405162461bcd60e51b815260040161056490612b82565b610812858585858561183e565b6001600160a01b038316331480610eeb5750610eeb83336104a8565b610f075760405162461bcd60e51b815260040161056490612b82565b6108cf83838361195b565b60006001600160e01b03198216637965db0b60e01b148061059e575061059e82611a5c565b610f418282610c4e565b61094e57610f59816001600160a01b03166014611aac565b610f64836020611aac565b604051602001610f7592919061298a565b60408051601f198184030181529082905262461bcd60e51b825261056491600401612ae3565b805161094e9060029060208401906120ba565b6001600160a01b038416610fd45760405162461bcd60e51b815260040161056490612d2d565b33610ff481600087610fe588611c94565b610fee88611c94565b87611ced565b6000848152602081815260408083206001600160a01b038916845290915281208054859290611024908490612daa565b909155505060408051858152602081018590526001600160a01b0380881692600092918516917fc3d58168c5ae7397731d063d5bbf3d657854427343f4c083240f7aacaa2d0f62910160405180910390a461081281600087878787611d41565b81518351146110a55760405162461bcd60e51b815260040161056490612ce5565b6001600160a01b0384166110cb5760405162461bcd60e51b815260040161056490612c13565b336110da818787878787611ced565b60005b84518110156111dc57600085828151811061110857634e487b7160e01b600052603260045260246000fd5b60200260200101519050600085838151811061113457634e487b7160e01b600052603260045260246000fd5b602090810291909101810151600084815280835260408082206001600160a01b038e1683529093529190912054909150818110156111845760405162461bcd60e51b815260040161056490612c9b565b6000838152602081815260408083206001600160a01b038e8116855292528083208585039055908b168252812080548492906111c1908490612daa565b92505081905550505050806111d590612ea6565b90506110dd565b50846001600160a01b0316866001600160a01b0316826001600160a01b03167f4a39dc06d4c0dbc64b70af90fd698a233a518aa5d07e595d983b8c0526c8f7fb878760405161122c929190612ab5565b60405180910390a4610d1d818787878787611eac565b61124c8282610c4e565b61094e5760008281526003602090815260408083206001600160a01b03851684529091529020805460ff191660011790556112843390565b6001600160a01b0316816001600160a01b0316837f2f8788117e7eff1d82e926ec794901d17c78024a50270940304540a733656f0d60405160405180910390a45050565b6112d28282610c4e565b1561094e5760008281526003602090815260408083206001600160a01b0385168085529252808320805460ff1916905551339285917ff6391f5c32d9c69d2a47ea670b442974b53935d1edc7fd64eb21e047a839171b9190a45050565b60045460ff166113785760405162461bcd60e51b815260206004820152601460248201527314185d5cd8589b194e881b9bdd081c185d5cd95960621b6044820152606401610564565b6004805460ff191690557f5db9ee0a495bf2e6ff9c91a7834c1ba4fdd244a5e8aa4e537bd38aeae4b073aa335b6040516001600160a01b03909116815260200160405180910390a1565b6001600160a01b0384166113e85760405162461bcd60e51b815260040161056490612d2d565b81518351146114095760405162461bcd60e51b815260040161056490612ce5565b3361141981600087878787611ced565b60005b84518110156114d05783818151811061144557634e487b7160e01b600052603260045260246000fd5b602002602001015160008087848151811061147057634e487b7160e01b600052603260045260246000fd5b602002602001015181526020019081526020016000206000886001600160a01b03166001600160a01b0316815260200190815260200160002060008282546114b89190612daa565b909155508190506114c881612ea6565b91505061141c565b50846001600160a01b031660006001600160a01b0316826001600160a01b03167f4a39dc06d4c0dbc64b70af90fd698a233a518aa5d07e595d983b8c0526c8f7fb8787604051611521929190612ab5565b60405180910390a461081281600087878787611eac565b6001600160a01b03831661155e5760405162461bcd60e51b815260040161056490612c58565b805182511461157f5760405162461bcd60e51b815260040161056490612ce5565b60003390506115a281856000868660405180602001604052806000815250611ced565b60005b83518110156116835760008482815181106115d057634e487b7160e01b600052603260045260246000fd5b6020026020010151905060008483815181106115fc57634e487b7160e01b600052603260045260246000fd5b602090810291909101810151600084815280835260408082206001600160a01b038c16835290935291909120549091508181101561164c5760405162461bcd60e51b815260040161056490612b3e565b6000928352602083815260408085206001600160a01b038b168652909152909220910390558061167b81612ea6565b9150506115a5565b5060006001600160a01b0316846001600160a01b0316826001600160a01b03167f4a39dc06d4c0dbc64b70af90fd698a233a518aa5d07e595d983b8c0526c8f7fb86866040516116d4929190612ab5565b60405180910390a450505050565b60045460ff16156117285760405162461bcd60e51b815260206004820152601060248201526f14185d5cd8589b194e881c185d5cd95960821b6044820152606401610564565b6004805460ff191660011790557f62e78cea01bee320cd4e420270b5ea74000d11b0c9f74754ebdbfc544b05a2586113a53390565b816001600160a01b0316836001600160a01b031614156117d15760405162461bcd60e51b815260206004820152602960248201527f455243313135353a2073657474696e6720617070726f76616c20737461747573604482015268103337b91039b2b63360b91b6064820152608401610564565b6001600160a01b03838116600081815260016020908152604080832094871680845294825291829020805460ff191686151590811790915591519182527f17307eab39ab6107e8899845ad3d59bd9653f200f220920489ca2b5937696c31910160405180910390a3505050565b6001600160a01b0384166118645760405162461bcd60e51b815260040161056490612c13565b33611874818787610fe588611c94565b6000848152602081815260408083206001600160a01b038a168452909152902054838110156118b55760405162461bcd60e51b815260040161056490612c9b565b6000858152602081815260408083206001600160a01b038b81168552925280832087850390559088168252812080548692906118f2908490612daa565b909155505060408051868152602081018690526001600160a01b03808916928a821692918616917fc3d58168c5ae7397731d063d5bbf3d657854427343f4c083240f7aacaa2d0f62910160405180910390a4611952828888888888611d41565b50505050505050565b6001600160a01b0383166119815760405162461bcd60e51b815260040161056490612c58565b336119b08185600061199287611c94565b61199b87611c94565b60405180602001604052806000815250611ced565b6000838152602081815260408083206001600160a01b0388168452909152902054828110156119f15760405162461bcd60e51b815260040161056490612b3e565b6000848152602081815260408083206001600160a01b03898116808652918452828520888703905582518981529384018890529092908616917fc3d58168c5ae7397731d063d5bbf3d657854427343f4c083240f7aacaa2d0f62910160405180910390a45050505050565b60006001600160e01b03198216636cdb3d1360e11b1480611a8d57506001600160e01b031982166303a24d0760e21b145b8061059e57506301ffc9a760e01b6001600160e01b031983161461059e565b60606000611abb836002612dc2565b611ac6906002612daa565b6001600160401b03811115611aeb57634e487b7160e01b600052604160045260246000fd5b6040519080825280601f01601f191660200182016040528015611b15576020820181803683370190505b509050600360fc1b81600081518110611b3e57634e487b7160e01b600052603260045260246000fd5b60200101906001600160f81b031916908160001a905350600f60fb1b81600181518110611b7b57634e487b7160e01b600052603260045260246000fd5b60200101906001600160f81b031916908160001a9053506000611b9f846002612dc2565b611baa906001612daa565b90505b6001811115611c3e576f181899199a1a9b1b9c1cb0b131b232b360811b85600f1660108110611bec57634e487b7160e01b600052603260045260246000fd5b1a60f81b828281518110611c1057634e487b7160e01b600052603260045260246000fd5b60200101906001600160f81b031916908160001a90535060049490941c93611c3781612e28565b9050611bad565b508315611c8d5760405162461bcd60e51b815260206004820181905260248201527f537472696e67733a20686578206c656e67746820696e73756666696369656e746044820152606401610564565b9392505050565b60408051600180825281830190925260609160009190602080830190803683370190505090508281600081518110611cdc57634e487b7160e01b600052603260045260246000fd5b602090810291909101015292915050565b60045460ff1615611d335760405162461bcd60e51b815260206004820152601060248201526f14185d5cd8589b194e881c185d5cd95960821b6044820152606401610564565b610d1d868686868686611f76565b6001600160a01b0384163b15610d1d5760405163f23a6e6160e01b81526001600160a01b0385169063f23a6e6190611d859089908990889088908890600401612a5d565b602060405180830381600087803b158015611d9f57600080fd5b505af1925050508015611dcf575060408051601f3d908101601f19168201909252611dcc918101906127e7565b60015b611e7c57611ddb612eed565b806308c379a01415611e155750611df0612f05565b80611dfb5750611e17565b8060405162461bcd60e51b81526004016105649190612ae3565b505b60405162461bcd60e51b815260206004820152603460248201527f455243313135353a207472616e7366657220746f206e6f6e20455243313135356044820152732932b1b2b4bb32b91034b6b83632b6b2b73a32b960611b6064820152608401610564565b6001600160e01b0319811663f23a6e6160e01b146119525760405162461bcd60e51b815260040161056490612af6565b6001600160a01b0384163b15610d1d5760405163bc197c8160e01b81526001600160a01b0385169063bc197c8190611ef090899089908890889088906004016129ff565b602060405180830381600087803b158015611f0a57600080fd5b505af1925050508015611f3a575060408051601f3d908101601f19168201909252611f37918101906127e7565b60015b611f4657611ddb612eed565b6001600160e01b0319811663bc197c8160e01b146119525760405162461bcd60e51b815260040161056490612af6565b6001600160a01b0385166120195760005b835181101561201757828181518110611fb057634e487b7160e01b600052603260045260246000fd5b602002602001015160056000868481518110611fdc57634e487b7160e01b600052603260045260246000fd5b6020026020010151815260200190815260200160002060008282546120019190612daa565b90915550612010905081612ea6565b9050611f87565b505b6001600160a01b038416610d1d5760005b83518110156119525782818151811061205357634e487b7160e01b600052603260045260246000fd5b60200260200101516005600086848151811061207f57634e487b7160e01b600052603260045260246000fd5b6020026020010151815260200190815260200160002060008282546120a49190612de1565b909155506120b3905081612ea6565b905061202a565b8280546120c690612e3f565b90600052602060002090601f0160209004810192826120e8576000855561212e565b82601f1061210157805160ff191683800117855561212e565b8280016001018555821561212e579182015b8281111561212e578251825591602001919060010190612113565b5061213a92915061213e565b5090565b5b8082111561213a576000815560010161213f565b80356001600160a01b038116811461216a57600080fd5b919050565b600082601f83011261217f578081fd5b8135602061218c82612d87565b6040516121998282612e7a565b8381528281019150858301600585901b870184018810156121b8578586fd5b855b858110156121d6578135845292840192908401906001016121ba565b5090979650505050505050565b600082601f8301126121f3578081fd5b81356001600160401b0381111561220c5761220c612ed7565b604051612223601f8301601f191660200182612e7a565b818152846020838601011115612237578283fd5b816020850160208301379081016020019190915292915050565b60008060408385031215612263578182fd5b61226c83612153565b915061227a60208401612153565b90509250929050565b600080600080600060a0868803121561229a578081fd5b6122a386612153565b94506122b160208701612153565b935060408601356001600160401b03808211156122cc578283fd5b6122d889838a0161216f565b945060608801359150808211156122ed578283fd5b6122f989838a0161216f565b9350608088013591508082111561230e578283fd5b5061231b888289016121e3565b9150509295509295909350565b600080600080600060a0868803121561233f578081fd5b61234886612153565b945061235660208701612153565b9350604086013592506060860135915060808601356001600160401b0381111561237e578182fd5b61231b888289016121e3565b6000806000806080858703121561239f578384fd5b6123a885612153565b93506020808601356001600160401b03808211156123c4578586fd5b6123d089838a0161216f565b955060408801359150808211156123e5578485fd5b818801915088601f8301126123f8578485fd5b813561240381612d87565b6040516124108282612e7a565b8281528581019150848601600584901b860187018d101561242f578889fd5b885b8481101561246857813586811115612447578a8bfd5b6124558f8a838b01016121e3565b8552509287019290870190600101612431565b509097505050506060880135925080831115612482578384fd5b5050612490878288016121e3565b91505092959194509250565b6000806000606084860312156124b0578081fd5b6124b984612153565b925060208401356001600160401b03808211156124d4578283fd5b6124e08783880161216f565b935060408601359150808211156124f5578283fd5b506125028682870161216f565b9150509250925092565b60008060008060808587031215612521578182fd5b61252a85612153565b935060208501356001600160401b0380821115612545578384fd5b6125518883890161216f565b94506040870135915080821115612566578384fd5b6125728883890161216f565b93506060870135915080821115612587578283fd5b50612490878288016121e3565b600080604083850312156125a6578182fd5b6125af83612153565b9150602083013580151581146125c3578182fd5b809150509250929050565b600080604083850312156125e0578182fd5b6125e983612153565b946020939093013593505050565b6000806000806080858703121561260c578182fd5b61261585612153565b93506020850135925060408501356001600160401b0380821115612637578384fd5b612572888389016121e3565b600080600060608486031215612657578081fd5b61266084612153565b95602085013595506040909401359392505050565b6000806000806080858703121561268a578182fd5b61269385612153565b9350602085013592506040850135915060608501356001600160401b038111156126bb578182fd5b612490878288016121e3565b600080604083850312156126d9578182fd5b82356001600160401b03808211156126ef578384fd5b818501915085601f830112612702578384fd5b8135602061270f82612d87565b60405161271c8282612e7a565b8381528281019150858301600585901b870184018b101561273b578889fd5b8896505b848710156127645761275081612153565b83526001969096019591830191830161273f565b509650508601359250508082111561277a578283fd5b506127878582860161216f565b9150509250929050565b6000602082840312156127a2578081fd5b5035919050565b600080604083850312156127bb578182fd5b8235915061227a60208401612153565b6000602082840312156127dc578081fd5b8135611c8d81612f8e565b6000602082840312156127f8578081fd5b8151611c8d81612f8e565b600060208284031215612814578081fd5b81356001600160401b03811115612829578182fd5b612835848285016121e3565b949350505050565b6000806040838503121561284f578182fd5b8235915060208301356001600160401b0381111561286b578182fd5b612787858286016121e3565b6000815180845260208085019450808401835b838110156128a65781518752958201959082019060010161288a565b509495945050505050565b600081518084526128c9816020860160208601612df8565b601f01601f19169290920160200192915050565b8054600090600181811c90808316806128f757607f831692505b602080841082141561291757634e487b7160e01b86526022600452602486fd5b81801561292b576001811461293c57612969565b60ff19861689528489019650612969565b60008881526020902060005b868110156129615781548b820152908501908301612948565b505084890196505b50505050505092915050565b600061283561298483866128dd565b846128dd565b7f416363657373436f6e74726f6c3a206163636f756e74200000000000000000008152600083516129c2816017850160208801612df8565b7001034b99036b4b9b9b4b733903937b6329607d1b60179184019182015283516129f3816028840160208801612df8565b01602801949350505050565b6001600160a01b0386811682528516602082015260a060408201819052600090612a2b90830186612877565b8281036060840152612a3d8186612877565b90508281036080840152612a5181856128b1565b98975050505050505050565b6001600160a01b03868116825285166020820152604081018490526060810183905260a060808201819052600090612a97908301846128b1565b979650505050505050565b602081526000611c8d6020830184612877565b604081526000612ac86040830185612877565b8281036020840152612ada8185612877565b95945050505050565b602081526000611c8d60208301846128b1565b60208082526028908201527f455243313135353a204552433131353552656365697665722072656a656374656040820152676420746f6b656e7360c01b606082015260800190565b60208082526024908201527f455243313135353a206275726e20616d6f756e7420657863656564732062616c604082015263616e636560e01b606082015260800190565b60208082526029908201527f455243313135353a2063616c6c6572206973206e6f74206f776e6572206e6f7260408201526808185c1c1c9bdd995960ba1b606082015260800190565b60208082526028908201527f45384d696e7461626c654e66743a206f6e65206f6620746f6b656e73206973206040820152676578697374696e6760c01b606082015260800190565b60208082526025908201527f455243313135353a207472616e7366657220746f20746865207a65726f206164604082015264647265737360d81b606082015260800190565b60208082526023908201527f455243313135353a206275726e2066726f6d20746865207a65726f206164647260408201526265737360e81b606082015260800190565b6020808252602a908201527f455243313135353a20696e73756666696369656e742062616c616e636520666f60408201526939103a3930b739b332b960b11b606082015260800190565b60208082526028908201527f455243313135353a2069647320616e6420616d6f756e7473206c656e677468206040820152670dad2e6dac2e8c6d60c31b606082015260800190565b60208082526021908201527f455243313135353a206d696e7420746f20746865207a65726f206164647265736040820152607360f81b606082015260800190565b82815260406020820152600061283560408301846128b1565b60006001600160401b03821115612da057612da0612ed7565b5060051b60200190565b60008219821115612dbd57612dbd612ec1565b500190565b6000816000190483118215151615612ddc57612ddc612ec1565b500290565b600082821015612df357612df3612ec1565b500390565b60005b83811015612e13578181015183820152602001612dfb565b83811115612e22576000848401525b50505050565b600081612e3757612e37612ec1565b506000190190565b600181811c90821680612e5357607f821691505b60208210811415612e7457634e487b7160e01b600052602260045260246000fd5b50919050565b601f8201601f191681016001600160401b0381118282101715612e9f57612e9f612ed7565b6040525050565b6000600019821415612eba57612eba612ec1565b5060010190565b634e487b7160e01b600052601160045260246000fd5b634e487b7160e01b600052604160045260246000fd5b600060033d1115612f0257600481823e5160e01c5b90565b600060443d1015612f135790565b6040516003193d81016004833e81513d6001600160401b038160248401118184111715612f4257505050505090565b8285019150815181811115612f5a5750505050505090565b843d8701016020828501011115612f745750505050505090565b612f8360208286010187612e7a565b509095945050505050565b6001600160e01b03198116811461098557600080fdfe9f2df0fed2c77648de5860a4cc508cd0818c85b8b8a1ab4ceeef8d981c8956a6a2646970667358221220ffa1dae43ff3762c426117c79c3a2edeea803991f107f875989b1e2632eb703c64736f6c63430008040033",
  "devdoc": {
    "kind": "dev",
    "methods": {
      "balanceOf(address,uint256)": {
        "details": "See {IERC1155-balanceOf}. Requirements: - `account` cannot be the zero address."
      },
      "balanceOfBatch(address[],uint256[])": {
        "details": "See {IERC1155-balanceOfBatch}. Requirements: - `accounts` and `ids` must have the same length."
      },
      "exists(uint256)": {
        "details": "Indicates whether any token exist with a given id, or not."
      },
      "getRoleAdmin(bytes32)": {
        "details": "Returns the admin role that controls `role`. See {grantRole} and {revokeRole}. To change a role's admin, use {_setRoleAdmin}."
      },
      "grantRole(bytes32,address)": {
        "details": "Grants `role` to `account`. If `account` had not been already granted `role`, emits a {RoleGranted} event. Requirements: - the caller must have ``role``'s admin role."
      },
      "hasRole(bytes32,address)": {
        "details": "Returns `true` if `account` has been granted `role`."
      },
      "isApprovedForAll(address,address)": {
        "details": "See {IERC1155-isApprovedForAll}."
      },
      "paused()": {
        "details": "Returns true if the contract is paused, and false otherwise."
      },
      "renounceRole(bytes32,address)": {
        "details": "Revokes `role` from the calling account. Roles are often managed via {grantRole} and {revokeRole}: this function's purpose is to provide a mechanism for accounts to lose their privileges if they are compromised (such as when a trusted device is misplaced). If the calling account had been revoked `role`, emits a {RoleRevoked} event. Requirements: - the caller must be `account`."
      },
      "revokeRole(bytes32,address)": {
        "details": "Revokes `role` from `account`. If `account` had been granted `role`, emits a {RoleRevoked} event. Requirements: - the caller must have ``role``'s admin role."
      },
      "safeBatchTransferFrom(address,address,uint256[],uint256[],bytes)": {
        "details": "See {IERC1155-safeBatchTransferFrom}."
      },
      "safeTransferFrom(address,address,uint256,uint256,bytes)": {
        "details": "See {IERC1155-safeTransferFrom}."
      },
      "setApprovalForAll(address,bool)": {
        "details": "See {IERC1155-setApprovalForAll}."
      },
      "totalSupply(uint256)": {
        "details": "Total amount of tokens in with a given id."
      }
    },
    "version": 1
  },
  "userdoc": {
    "kind": "user",
    "methods": {},
    "version": 1
  },
  "storageLayout": {
    "storage": [
      {
        "astId": 604,
        "contract": "contracts/E8MintableNft.sol:E8MintableNft",
        "label": "_balances",
        "offset": 0,
        "slot": "0",
        "type": "t_mapping(t_uint256,t_mapping(t_address,t_uint256))"
      },
      {
        "astId": 610,
        "contract": "contracts/E8MintableNft.sol:E8MintableNft",
        "label": "_operatorApprovals",
        "offset": 0,
        "slot": "1",
        "type": "t_mapping(t_address,t_mapping(t_address,t_bool))"
      },
      {
        "astId": 612,
        "contract": "contracts/E8MintableNft.sol:E8MintableNft",
        "label": "_uri",
        "offset": 0,
        "slot": "2",
        "type": "t_string_storage"
      },
      {
        "astId": 24,
        "contract": "contracts/E8MintableNft.sol:E8MintableNft",
        "label": "_roles",
        "offset": 0,
        "slot": "3",
        "type": "t_mapping(t_bytes32,t_struct(RoleData)19_storage)"
      },
      {
        "astId": 504,
        "contract": "contracts/E8MintableNft.sol:E8MintableNft",
        "label": "_paused",
        "offset": 0,
        "slot": "4",
        "type": "t_bool"
      },
      {
        "astId": 1916,
        "contract": "contracts/E8MintableNft.sol:E8MintableNft",
        "label": "_totalSupply",
        "offset": 0,
        "slot": "5",
        "type": "t_mapping(t_uint256,t_uint256)"
      },
      {
        "astId": 3536,
        "contract": "contracts/E8MintableNft.sol:E8MintableNft",
        "label": "baseURI",
        "offset": 0,
        "slot": "6",
        "type": "t_string_storage"
      },
      {
        "astId": 3539,
        "contract": "contracts/E8MintableNft.sol:E8MintableNft",
        "label": "_tokenIdCounter",
        "offset": 0,
        "slot": "7",
        "type": "t_struct(Counter)2455_storage"
      },
      {
        "astId": 3543,
        "contract": "contracts/E8MintableNft.sol:E8MintableNft",
        "label": "idToUri",
        "offset": 0,
        "slot": "8",
        "type": "t_mapping(t_uint256,t_string_storage)"
      }
    ],
    "types": {
      "t_address": {
        "encoding": "inplace",
        "label": "address",
        "numberOfBytes": "20"
      },
      "t_bool": {
        "encoding": "inplace",
        "label": "bool",
        "numberOfBytes": "1"
      },
      "t_bytes32": {
        "encoding": "inplace",
        "label": "bytes32",
        "numberOfBytes": "32"
      },
      "t_mapping(t_address,t_bool)": {
        "encoding": "mapping",
        "key": "t_address",
        "label": "mapping(address => bool)",
        "numberOfBytes": "32",
        "value": "t_bool"
      },
      "t_mapping(t_address,t_mapping(t_address,t_bool))": {
        "encoding": "mapping",
        "key": "t_address",
        "label": "mapping(address => mapping(address => bool))",
        "numberOfBytes": "32",
        "value": "t_mapping(t_address,t_bool)"
      },
      "t_mapping(t_address,t_uint256)": {
        "encoding": "mapping",
        "key": "t_address",
        "label": "mapping(address => uint256)",
        "numberOfBytes": "32",
        "value": "t_uint256"
      },
      "t_mapping(t_bytes32,t_struct(RoleData)19_storage)": {
        "encoding": "mapping",
        "key": "t_bytes32",
        "label": "mapping(bytes32 => struct AccessControl.RoleData)",
        "numberOfBytes": "32",
        "value": "t_struct(RoleData)19_storage"
      },
      "t_mapping(t_uint256,t_mapping(t_address,t_uint256))": {
        "encoding": "mapping",
        "key": "t_uint256",
        "label": "mapping(uint256 => mapping(address => uint256))",
        "numberOfBytes": "32",
        "value": "t_mapping(t_address,t_uint256)"
      },
      "t_mapping(t_uint256,t_string_storage)": {
        "encoding": "mapping",
        "key": "t_uint256",
        "label": "mapping(uint256 => string)",
        "numberOfBytes": "32",
        "value": "t_string_storage"
      },
      "t_mapping(t_uint256,t_uint256)": {
        "encoding": "mapping",
        "key": "t_uint256",
        "label": "mapping(uint256 => uint256)",
        "numberOfBytes": "32",
        "value": "t_uint256"
      },
      "t_string_storage": {
        "encoding": "bytes",
        "label": "string",
        "numberOfBytes": "32"
      },
      "t_struct(Counter)2455_storage": {
        "encoding": "inplace",
        "label": "struct Counters.Counter",
        "members": [
          {
            "astId": 2454,
            "contract": "contracts/E8MintableNft.sol:E8MintableNft",
            "label": "_value",
            "offset": 0,
            "slot": "0",
            "type": "t_uint256"
          }
        ],
        "numberOfBytes": "32"
      },
      "t_struct(RoleData)19_storage": {
        "encoding": "inplace",
        "label": "struct AccessControl.RoleData",
        "members": [
          {
            "astId": 16,
            "contract": "contracts/E8MintableNft.sol:E8MintableNft",
            "label": "members",
            "offset": 0,
            "slot": "0",
            "type": "t_mapping(t_address,t_bool)"
          },
          {
            "astId": 18,
            "contract": "contracts/E8MintableNft.sol:E8MintableNft",
            "label": "adminRole",
            "offset": 0,
            "slot": "1",
            "type": "t_bytes32"
          }
        ],
        "numberOfBytes": "64"
      },
      "t_uint256": {
        "encoding": "inplace",
        "label": "uint256",
        "numberOfBytes": "32"
      }
    }
  }
}