{
  "address": "0x9FA0bbDAd6b9a0d53C3c4Bf5Ca97cA7100f48e8f",
  "abi": [
    {
      "inputs": [
        {
          "internalType": "contract IE8MintableNft",
          "name": "_nftE8",
          "type": "address"
        },
        {
          "internalType": "contract IERC20",
          "name": "_energyToken",
          "type": "address"
        }
      ],
      "stateMutability": "nonpayable",
      "type": "constructor"
    },
    {
      "anonymous": false,
      "inputs": [
        {
          "indexed": false,
          "internalType": "uint256",
          "name": "tokenId",
          "type": "uint256"
        },
        {
          "indexed": false,
          "internalType": "uint256",
          "name": "amount",
          "type": "uint256"
        },
        {
          "indexed": false,
          "internalType": "address",
          "name": "buyer",
          "type": "address"
        }
      ],
      "name": "Buy",
      "type": "event"
    },
    {
      "anonymous": false,
      "inputs": [
        {
          "indexed": false,
          "internalType": "uint256",
          "name": "batchId",
          "type": "uint256"
        },
        {
          "indexed": false,
          "internalType": "address",
          "name": "buyer",
          "type": "address"
        }
      ],
      "name": "BuyBatch",
      "type": "event"
    },
    {
      "anonymous": false,
      "inputs": [
        {
          "indexed": false,
          "internalType": "uint256",
          "name": "batchId",
          "type": "uint256"
        },
        {
          "indexed": false,
          "internalType": "uint256",
          "name": "limit",
          "type": "uint256"
        },
        {
          "indexed": false,
          "internalType": "uint256",
          "name": "price",
          "type": "uint256"
        },
        {
          "indexed": false,
          "internalType": "bool",
          "name": "active",
          "type": "bool"
        },
        {
          "indexed": false,
          "internalType": "uint256[]",
          "name": "ids",
          "type": "uint256[]"
        },
        {
          "indexed": false,
          "internalType": "uint256[]",
          "name": "amounts",
          "type": "uint256[]"
        }
      ],
      "name": "CreateBatchLot",
      "type": "event"
    },
    {
      "anonymous": false,
      "inputs": [
        {
          "indexed": false,
          "internalType": "uint256",
          "name": "tokenId",
          "type": "uint256"
        },
        {
          "indexed": false,
          "internalType": "uint256",
          "name": "limit",
          "type": "uint256"
        },
        {
          "indexed": false,
          "internalType": "uint256",
          "name": "price",
          "type": "uint256"
        },
        {
          "indexed": false,
          "internalType": "bool",
          "name": "active",
          "type": "bool"
        }
      ],
      "name": "CreateLot",
      "type": "event"
    },
    {
      "anonymous": false,
      "inputs": [
        {
          "indexed": false,
          "internalType": "uint256",
          "name": "batchId",
          "type": "uint256"
        },
        {
          "indexed": false,
          "internalType": "uint256",
          "name": "limit",
          "type": "uint256"
        },
        {
          "indexed": false,
          "internalType": "uint256",
          "name": "price",
          "type": "uint256"
        },
        {
          "indexed": false,
          "internalType": "bool",
          "name": "active",
          "type": "bool"
        },
        {
          "indexed": false,
          "internalType": "uint256[]",
          "name": "ids",
          "type": "uint256[]"
        },
        {
          "indexed": false,
          "internalType": "uint256[]",
          "name": "amounts",
          "type": "uint256[]"
        }
      ],
      "name": "EditBatchLot",
      "type": "event"
    },
    {
      "anonymous": false,
      "inputs": [
        {
          "indexed": false,
          "internalType": "uint256",
          "name": "tokenId",
          "type": "uint256"
        },
        {
          "indexed": false,
          "internalType": "uint256",
          "name": "limit",
          "type": "uint256"
        },
        {
          "indexed": false,
          "internalType": "uint256",
          "name": "price",
          "type": "uint256"
        },
        {
          "indexed": false,
          "internalType": "bool",
          "name": "active",
          "type": "bool"
        }
      ],
      "name": "EditLot",
      "type": "event"
    },
    {
      "anonymous": false,
      "inputs": [
        {
          "indexed": false,
          "internalType": "address",
          "name": "owner",
          "type": "address"
        },
        {
          "indexed": false,
          "internalType": "uint256",
          "name": "amount",
          "type": "uint256"
        }
      ],
      "name": "GradTokens",
      "type": "event"
    },
    {
      "anonymous": false,
      "inputs": [
        {
          "indexed": true,
          "internalType": "address",
          "name": "previousOwner",
          "type": "address"
        },
        {
          "indexed": true,
          "internalType": "address",
          "name": "newOwner",
          "type": "address"
        }
      ],
      "name": "OwnershipTransferred",
      "type": "event"
    },
    {
      "anonymous": false,
      "inputs": [
        {
          "indexed": false,
          "internalType": "bool",
          "name": "_active",
          "type": "bool"
        },
        {
          "indexed": false,
          "internalType": "uint256",
          "name": "_batchLotId",
          "type": "uint256"
        }
      ],
      "name": "SetActiveForBatchLot",
      "type": "event"
    },
    {
      "anonymous": false,
      "inputs": [
        {
          "indexed": false,
          "internalType": "bool",
          "name": "_active",
          "type": "bool"
        },
        {
          "indexed": false,
          "internalType": "uint256",
          "name": "_tokenId",
          "type": "uint256"
        }
      ],
      "name": "SetActiveForLot",
      "type": "event"
    },
    {
      "inputs": [
        {
          "internalType": "uint256",
          "name": "_tokenId",
          "type": "uint256"
        },
        {
          "internalType": "uint256",
          "name": "_amount",
          "type": "uint256"
        }
      ],
      "name": "buy",
      "outputs": [
        {
          "internalType": "bool",
          "name": "",
          "type": "bool"
        }
      ],
      "stateMutability": "nonpayable",
      "type": "function"
    },
    {
      "inputs": [
        {
          "internalType": "uint256",
          "name": "batchId",
          "type": "uint256"
        }
      ],
      "name": "buyBatch",
      "outputs": [
        {
          "internalType": "bool",
          "name": "",
          "type": "bool"
        }
      ],
      "stateMutability": "nonpayable",
      "type": "function"
    },
    {
      "inputs": [
        {
          "internalType": "uint256",
          "name": "limit",
          "type": "uint256"
        },
        {
          "internalType": "uint256",
          "name": "price",
          "type": "uint256"
        },
        {
          "internalType": "bool",
          "name": "active",
          "type": "bool"
        },
        {
          "internalType": "uint256[]",
          "name": "ids",
          "type": "uint256[]"
        },
        {
          "internalType": "uint256[]",
          "name": "amounts",
          "type": "uint256[]"
        }
      ],
      "name": "createBatchLot",
      "outputs": [
        {
          "internalType": "bool",
          "name": "",
          "type": "bool"
        }
      ],
      "stateMutability": "nonpayable",
      "type": "function"
    },
    {
      "inputs": [
        {
          "internalType": "uint256",
          "name": "tokenId",
          "type": "uint256"
        },
        {
          "internalType": "uint256",
          "name": "limit",
          "type": "uint256"
        },
        {
          "internalType": "uint256",
          "name": "price",
          "type": "uint256"
        },
        {
          "internalType": "bool",
          "name": "active",
          "type": "bool"
        }
      ],
      "name": "createLot",
      "outputs": [
        {
          "internalType": "bool",
          "name": "",
          "type": "bool"
        }
      ],
      "stateMutability": "nonpayable",
      "type": "function"
    },
    {
      "inputs": [
        {
          "internalType": "uint256",
          "name": "batchId",
          "type": "uint256"
        },
        {
          "internalType": "uint256",
          "name": "limit",
          "type": "uint256"
        },
        {
          "internalType": "uint256",
          "name": "price",
          "type": "uint256"
        },
        {
          "internalType": "bool",
          "name": "active",
          "type": "bool"
        },
        {
          "internalType": "uint256[]",
          "name": "ids",
          "type": "uint256[]"
        },
        {
          "internalType": "uint256[]",
          "name": "amounts",
          "type": "uint256[]"
        }
      ],
      "name": "editBatchLot",
      "outputs": [
        {
          "internalType": "bool",
          "name": "",
          "type": "bool"
        }
      ],
      "stateMutability": "nonpayable",
      "type": "function"
    },
    {
      "inputs": [
        {
          "internalType": "uint256",
          "name": "tokenId",
          "type": "uint256"
        },
        {
          "internalType": "uint256",
          "name": "limit",
          "type": "uint256"
        },
        {
          "internalType": "uint256",
          "name": "price",
          "type": "uint256"
        },
        {
          "internalType": "bool",
          "name": "active",
          "type": "bool"
        }
      ],
      "name": "editLot",
      "outputs": [
        {
          "internalType": "bool",
          "name": "",
          "type": "bool"
        }
      ],
      "stateMutability": "nonpayable",
      "type": "function"
    },
    {
      "inputs": [
        {
          "internalType": "uint256",
          "name": "start",
          "type": "uint256"
        },
        {
          "internalType": "uint256",
          "name": "size",
          "type": "uint256"
        }
      ],
      "name": "getAllBatchLots",
      "outputs": [
        {
          "components": [
            {
              "internalType": "uint256",
              "name": "limit",
              "type": "uint256"
            },
            {
              "internalType": "uint256",
              "name": "supply",
              "type": "uint256"
            },
            {
              "internalType": "uint256",
              "name": "price",
              "type": "uint256"
            },
            {
              "internalType": "bool",
              "name": "active",
              "type": "bool"
            },
            {
              "internalType": "uint256[]",
              "name": "ids",
              "type": "uint256[]"
            },
            {
              "internalType": "uint256[]",
              "name": "amounts",
              "type": "uint256[]"
            }
          ],
          "internalType": "struct E8MarketPlace.BatchLot[]",
          "name": "",
          "type": "tuple[]"
        }
      ],
      "stateMutability": "view",
      "type": "function"
    },
    {
      "inputs": [
        {
          "internalType": "uint256",
          "name": "start",
          "type": "uint256"
        },
        {
          "internalType": "uint256",
          "name": "size",
          "type": "uint256"
        }
      ],
      "name": "getAllLots",
      "outputs": [
        {
          "components": [
            {
              "internalType": "uint256",
              "name": "limit",
              "type": "uint256"
            },
            {
              "internalType": "uint256",
              "name": "supply",
              "type": "uint256"
            },
            {
              "internalType": "uint256",
              "name": "price",
              "type": "uint256"
            },
            {
              "internalType": "bool",
              "name": "active",
              "type": "bool"
            }
          ],
          "internalType": "struct E8MarketPlace.Lot[]",
          "name": "",
          "type": "tuple[]"
        }
      ],
      "stateMutability": "view",
      "type": "function"
    },
    {
      "inputs": [
        {
          "internalType": "uint256",
          "name": "batchId",
          "type": "uint256"
        }
      ],
      "name": "getBatchLotInfo",
      "outputs": [
        {
          "components": [
            {
              "internalType": "uint256",
              "name": "limit",
              "type": "uint256"
            },
            {
              "internalType": "uint256",
              "name": "supply",
              "type": "uint256"
            },
            {
              "internalType": "uint256",
              "name": "price",
              "type": "uint256"
            },
            {
              "internalType": "bool",
              "name": "active",
              "type": "bool"
            },
            {
              "internalType": "uint256[]",
              "name": "ids",
              "type": "uint256[]"
            },
            {
              "internalType": "uint256[]",
              "name": "amounts",
              "type": "uint256[]"
            }
          ],
          "internalType": "struct E8MarketPlace.BatchLot",
          "name": "",
          "type": "tuple"
        }
      ],
      "stateMutability": "view",
      "type": "function"
    },
    {
      "inputs": [
        {
          "internalType": "uint256",
          "name": "tokenId",
          "type": "uint256"
        }
      ],
      "name": "getLotInfo",
      "outputs": [
        {
          "components": [
            {
              "internalType": "uint256",
              "name": "limit",
              "type": "uint256"
            },
            {
              "internalType": "uint256",
              "name": "supply",
              "type": "uint256"
            },
            {
              "internalType": "uint256",
              "name": "price",
              "type": "uint256"
            },
            {
              "internalType": "bool",
              "name": "active",
              "type": "bool"
            }
          ],
          "internalType": "struct E8MarketPlace.Lot",
          "name": "",
          "type": "tuple"
        }
      ],
      "stateMutability": "view",
      "type": "function"
    },
    {
      "inputs": [],
      "name": "getNftContractAddress",
      "outputs": [
        {
          "internalType": "address",
          "name": "",
          "type": "address"
        }
      ],
      "stateMutability": "view",
      "type": "function"
    },
    {
      "inputs": [],
      "name": "gradTokens",
      "outputs": [
        {
          "internalType": "bool",
          "name": "",
          "type": "bool"
        }
      ],
      "stateMutability": "nonpayable",
      "type": "function"
    },
    {
      "inputs": [],
      "name": "owner",
      "outputs": [
        {
          "internalType": "address",
          "name": "",
          "type": "address"
        }
      ],
      "stateMutability": "view",
      "type": "function"
    },
    {
      "inputs": [],
      "name": "renounceOwnership",
      "outputs": [],
      "stateMutability": "nonpayable",
      "type": "function"
    },
    {
      "inputs": [
        {
          "internalType": "bool",
          "name": "_active",
          "type": "bool"
        },
        {
          "internalType": "uint256",
          "name": "_batchLotId",
          "type": "uint256"
        }
      ],
      "name": "setActiveForBatchLot",
      "outputs": [
        {
          "internalType": "bool",
          "name": "",
          "type": "bool"
        }
      ],
      "stateMutability": "nonpayable",
      "type": "function"
    },
    {
      "inputs": [
        {
          "internalType": "bool",
          "name": "_active",
          "type": "bool"
        },
        {
          "internalType": "uint256",
          "name": "_tokenId",
          "type": "uint256"
        }
      ],
      "name": "setActiveForLot",
      "outputs": [
        {
          "internalType": "bool",
          "name": "",
          "type": "bool"
        }
      ],
      "stateMutability": "nonpayable",
      "type": "function"
    },
    {
      "inputs": [
        {
          "internalType": "address",
          "name": "newOwner",
          "type": "address"
        }
      ],
      "name": "transferOwnership",
      "outputs": [],
      "stateMutability": "nonpayable",
      "type": "function"
    }
  ],
  "transactionHash": "0x717dd64a38c3b4a03705455de21531dbf56565416892a719946b91d94f8f13bd",
  "args": [
    "0xd7f05c0ceCffa15b8Ccd9eA01c875B94D920947c",
    "0x59562Aa0056673888CC21c019Bb7E90C970c599F"
  ],
  "solcInputHash": "118a7080345e0c211cfe03440755b840",
  "bytecode": "0x60806040523480156200001157600080fd5b5060405162002044380380620020448339810160408190526200003491620000c1565b6200003f3362000071565b600280546001600160a01b039384166001600160a01b0319918216179091556003805492909316911617905562000118565b600080546001600160a01b038381166001600160a01b0319831681178455604051919092169283917f8be0079c531659141344cd1fd0a4f28419497f9722a3daafe3b4186f6b6457e09190a35050565b60008060408385031215620000d4578182fd5b8251620000e181620000ff565b6020840151909250620000f481620000ff565b809150509250929050565b6001600160a01b03811681146200011557600080fd5b50565b611f1c80620001286000396000f3fe608060405234801561001057600080fd5b506004361061010b5760003560e01c8063715018a6116100a2578063b8959a8b11610071578063b8959a8b1461022e578063cf9bde4a1461023f578063d6febde814610252578063f2fde38b14610265578063f84338d41461027857600080fd5b8063715018a6146101cc578063746d1e57146101d657806383f4fb81146101e95780638da5cb5b1461020957600080fd5b806342af7950116100de57806342af79501461017357806343ec26231461018657806351f5beb6146101a6578063596faf81146101b957600080fd5b8063048a9b1e146101105780632f1b130314610138578063379744bb146101585780633efb77b914610160575b600080fd5b61012361011e36600461197e565b610298565b60405190151581526020015b60405180910390f35b61014b61014636600461192d565b610565565b60405161012f9190611de9565b6101236105dc565b61012361016e366004611a05565b6107fa565b610123610181366004611902565b6109ca565b61019961019436600461195d565b610a5a565b60405161012f9190611c41565b6101236101b4366004611a05565b610c4a565b6101236101c7366004611902565b610d87565b6101d4610e09565b005b6101236101e436600461192d565b610e3f565b6101fc6101f736600461195d565b611012565b60405161012f9190611ca2565b6000546001600160a01b03165b6040516001600160a01b03909116815260200161012f565b6002546001600160a01b0316610216565b61012361024d366004611a45565b61113e565b61012361026036600461195d565b6113af565b6101d46102733660046118b8565b61159e565b61028b61028636600461192d565b611639565b60405161012f9190611dd6565b600080546001600160a01b031633146102cc5760405162461bcd60e51b81526004016102c390611d13565b60405180910390fd5b81518351146103345760405162461bcd60e51b815260206004820152602e60248201527f45384d61726b6574506c6163653a2069647320616e6420616d6f756e7473206c60448201526d0cadccee8d040dad2e6dac2e8c6d60931b60648201526084016102c3565b600061033f60015490565b905060005b845181101561046a5760025485516001600160a01b0390911690639d36788e9087908490811061038457634e487b7160e01b600052603260045260246000fd5b60200260200101516040518263ffffffff1660e01b81526004016103aa91815260200190565b60206040518083038186803b1580156103c257600080fd5b505afa1580156103d6573d6000803e3d6000fd5b505050506040513d601f19601f820116820180604052508101906103fa91906118e6565b6104585760405162461bcd60e51b815260206004820152602960248201527f45384d696e7461626c654e66743a206f6e65206f6620746f6b656e73206973206044820152681b9bdd08195e1a5cdd60ba1b60648201526084016102c3565b8061046281611e91565b915050610344565b506040805160c081018252888152600060208083018281528385018b81528a151560608601908152608086018b815260a087018b905288865260058552969094208551815591516001830155516002820155915160038301805460ff191691151591909117905592518051929391926104e992600485019201906117ba565b5060a082015180516105059160058401916020909101906117ba565b509050507f29f9a1aabef06f688917ab476e2a26e508b8ca280cedb77b4bdfb05206e3517381888888888860405161054296959493929190611e16565b60405180910390a1610558600180546001019055565b5060019695505050505050565b61059260405180608001604052806000815260200160008152602001600081526020016000151581525090565b5060009081526004602090815260409182902082516080810184528154815260018201549281019290925260028101549282019290925260039091015460ff161515606082015290565b600080546001600160a01b031633146106075760405162461bcd60e51b81526004016102c390611d13565b6003546001600160a01b031663a9059cbb61062a6000546001600160a01b031690565b6003546040516370a0823160e01b81523060048201526001600160a01b03909116906370a082319060240160206040518083038186803b15801561066d57600080fd5b505afa158015610681573d6000803e3d6000fd5b505050506040513d601f19601f820116820180604052508101906106a59190611945565b6040516001600160e01b031960e085901b1681526001600160a01b0390921660048301526024820152604401602060405180830381600087803b1580156106eb57600080fd5b505af11580156106ff573d6000803e3d6000fd5b505050506040513d601f19601f8201168201806040525081019061072391906118e6565b507f6acef199a20ebc0081fa72c1f43323b7c1d42fb1b7084cf468bc8752094ee1e56107576000546001600160a01b031690565b6003546040516370a0823160e01b81523060048201526001600160a01b03909116906370a082319060240160206040518083038186803b15801561079a57600080fd5b505afa1580156107ae573d6000803e3d6000fd5b505050506040513d601f19601f820116820180604052508101906107d29190611945565b604080516001600160a01b03909316835260208301919091520160405180910390a150600190565b600080546001600160a01b031633146108255760405162461bcd60e51b81526004016102c390611d13565b600254604051634e9b3c4760e11b8152600481018790526001600160a01b0390911690639d36788e9060240160206040518083038186803b15801561086957600080fd5b505afa15801561087d573d6000803e3d6000fd5b505050506040513d601f19601f820116820180604052508101906108a191906118e6565b6108ed5760405162461bcd60e51b815260206004820152601f60248201527f45384d61726b6574506c6163653a20746f6b656e20646f6e742065786973740060448201526064016102c3565b60008581526004602052604090206003015460ff161561091f5760405162461bcd60e51b81526004016102c390611d91565b60408051608080820183528682526000602080840182815284860189815288151560608088018281528e8752600486529589902097518855925160018801559051600287015592516003909501805460ff19169515159590951790945584518a8152908101899052938401879052918301919091527f93cad02e45bd64eeee79d05dfe25887ec9e6c57208128718ddc08a90a1bc5c98910160405180910390a1506001949350505050565b600080546001600160a01b031633146109f55760405162461bcd60e51b81526004016102c390611d13565b600082815260056020908152604091829020600301805460ff191686151590811790915582519081529081018490527ffa60580bf54d40621b4439d736f4a10676f23ac2126d3458d671ef933696cbb991015b60405180910390a15060015b92915050565b606060008267ffffffffffffffff811115610a8557634e487b7160e01b600052604160045260246000fd5b604051908082528060200260200182016040528015610af157816020015b610ade6040518060c0016040528060008152602001600081526020016000815260200160001515815260200160608152602001606081525090565b815260200190600190039081610aa35790505b509050835b610b008486611e62565b811015610c4257600081815260056020908152604091829020825160c08101845281548152600182015481840152600282015481850152600382015460ff161515606082015260048201805485518186028101860190965280865292949193859360808601939291830182828015610b9757602002820191906000526020600020905b815481526020019060010190808311610b83575b5050505050815260200160058201805480602002602001604051908101604052809291908181526020018280548015610bef57602002820191906000526020600020905b815481526020019060010190808311610bdb575b505050505081525050838784610c059190611e7a565b81518110610c2357634e487b7160e01b600052603260045260246000fd5b6020026020010181905250508080610c3a90611e91565b915050610af6565b509392505050565b600080546001600160a01b03163314610c755760405162461bcd60e51b81526004016102c390611d13565b60008581526004602090815260409182902082516080810184528154815260018201549281019290925260028101549282019290925260039091015460ff161580156060830152610cd85760405162461bcd60e51b81526004016102c390611d91565b6040805160808082018352878252602084810151818401908152838501898152881515606080870182815260008f81526004875289902097518855935160018801559151600287015591516003909501805460ff19169515159590951790945584518b81529182018a9052938101889052918201929092527f0ce3255d9b24aa8b8a635eed71f2722443e8f477bfb1ca47326a38224332276a910160405180910390a150600195945050505050565b600080546001600160a01b03163314610db25760405162461bcd60e51b81526004016102c390611d13565b600082815260046020908152604091829020600301805460ff191686151590811790915582519081529081018490527fff9c96733453b346316733938258ef2eb286c4b4ee58e7f6137d5a73aa4f18839101610a48565b6000546001600160a01b03163314610e335760405162461bcd60e51b81526004016102c390611d13565b610e3d600061176a565b565b6000818152600560205260408120600381015460ff16610ea15760405162461bcd60e51b815260206004820181905260248201527f4d61726b6574506c61636545383a206c6f74206973206e6f742061637469766560448201526064016102c3565b805415610ecc578054600182015410610ecc5760405162461bcd60e51b81526004016102c390611d48565b600180820154610edb91611e62565b600182015560035460028201546040516323b872dd60e01b815233600482015230602482015260448101919091526001600160a01b03909116906323b872dd90606401602060405180830381600087803b158015610f3857600080fd5b505af1158015610f4c573d6000803e3d6000fd5b505050506040513d601f19601f82011682018060405250810190610f7091906118e6565b5060025460405163445e3fad60e01b81526001600160a01b039091169063445e3fad90610faa903390600480870191600588019101611ba1565b600060405180830381600087803b158015610fc457600080fd5b505af1158015610fd8573d6000803e3d6000fd5b5050604080518681523360208201527faf57e6192ecdceb015b45d9703d0b258d4e1eb3c3a395822d995115346ab27269350019050610a48565b606060008267ffffffffffffffff81111561103d57634e487b7160e01b600052604160045260246000fd5b60405190808252806020026020018201604052801561109b57816020015b61108860405180608001604052806000815260200160008152602001600081526020016000151581525090565b81526020019060019003908161105b5790505b509050835b6110aa8486611e62565b811015610c4257600081815260046020908152604091829020825160808101845281548152600182015492810192909252600281015492820192909252600382015460ff1615156060820152836111018885611e7a565b8151811061111f57634e487b7160e01b600052603260045260246000fd5b602002602001018190525050808061113690611e91565b9150506110a0565b600080546001600160a01b031633146111695760405162461bcd60e51b81526004016102c390611d13565b6000878152600560209081526040808320815160c08101835281548152600182015481850152600282015481840152600382015460ff16151560608201526004820180548451818702810187019095528085529194929360808601939092908301828280156111f757602002820191906000526020600020905b8154815260200190600101908083116111e3575b505050505081526020016005820180548060200260200160405190810160405280929190818152602001828054801561124f57602002820191906000526020600020905b81548152602001906001019080831161123b575b50505050508152505090508060600151156112bf5760405162461bcd60e51b815260206004820152602a60248201527f45384d61726b6574506c6163653a2062617463684c6f74206d757374206265206044820152696e6f742061637469766560b01b60648201526084016102c3565b6040805160c0810182528881526020838101518183019081528284018a815289151560608501908152608085018a815260a086018a905260008f815260058652969096208551815592516001840155905160028301555160038201805460ff19169115159190911790559251805192939261134092600485019201906117ba565b5060a0820151805161135c9160058401916020909101906117ba565b509050507f1cd97faaf54bef4b1d99c54fa300e01fb4095820defee8d1c38a6eb6842e12da88888888888860405161139996959493929190611e16565b60405180910390a1506001979650505050505050565b6000828152600460205260408120600381015460ff166114115760405162461bcd60e51b815260206004820181905260248201527f4d61726b6574506c61636545383a206c6f74206973206e6f742061637469766560448201526064016102c3565b805415611448578054600182015461142a908590611e62565b11156114485760405162461bcd60e51b81526004016102c390611d48565b8281600101546114589190611e62565b600182015560035460028201546040516323b872dd60e01b815233600482015230602482015260448101919091526001600160a01b03909116906323b872dd90606401602060405180830381600087803b1580156114b557600080fd5b505af11580156114c9573d6000803e3d6000fd5b505050506040513d601f19601f820116820180604052508101906114ed91906118e6565b50600254604051630193d91160e41b81526001600160a01b039091169063193d91109061152290339088908890600401611c00565b600060405180830381600087803b15801561153c57600080fd5b505af1158015611550573d6000803e3d6000fd5b50506040805187815260208101879052338183015290517ff7735c8cb2a65788ca663fc8415b7c6a66cd6847d58346d8334e8d52a599d3df9350908190036060019150a15060019392505050565b6000546001600160a01b031633146115c85760405162461bcd60e51b81526004016102c390611d13565b6001600160a01b03811661162d5760405162461bcd60e51b815260206004820152602660248201527f4f776e61626c653a206e6577206f776e657220697320746865207a65726f206160448201526564647265737360d01b60648201526084016102c3565b6116368161176a565b50565b6116746040518060c0016040528060008152602001600081526020016000815260200160001515815260200160608152602001606081525090565b600082815260056020908152604091829020825160c08101845281548152600182015481840152600282015481850152600382015460ff1615156060820152600482018054855181860281018601909652808652919492936080860193929083018282801561170257602002820191906000526020600020905b8154815260200190600101908083116116ee575b505050505081526020016005820180548060200260200160405190810160405280929190818152602001828054801561175a57602002820191906000526020600020905b815481526020019060010190808311611746575b5050505050815250509050919050565b600080546001600160a01b038381166001600160a01b0319831681178455604051919092169283917f8be0079c531659141344cd1fd0a4f28419497f9722a3daafe3b4186f6b6457e09190a35050565b8280548282559060005260206000209081019282156117f5579160200282015b828111156117f55782518255916020019190600101906117da565b50611801929150611805565b5090565b5b808211156118015760008155600101611806565b600082601f83011261182a578081fd5b8135602067ffffffffffffffff8083111561184757611847611ec2565b8260051b604051601f19603f8301168101818110848211171561186c5761186c611ec2565b6040528481528381019250868401828801850189101561188a578687fd5b8692505b858310156118ac57803584529284019260019290920191840161188e565b50979650505050505050565b6000602082840312156118c9578081fd5b81356001600160a01b03811681146118df578182fd5b9392505050565b6000602082840312156118f7578081fd5b81516118df81611ed8565b60008060408385031215611914578081fd5b823561191f81611ed8565b946020939093013593505050565b60006020828403121561193e578081fd5b5035919050565b600060208284031215611956578081fd5b5051919050565b6000806040838503121561196f578182fd5b50508035926020909101359150565b600080600080600060a08688031215611995578081fd5b853594506020860135935060408601356119ae81611ed8565b9250606086013567ffffffffffffffff808211156119ca578283fd5b6119d689838a0161181a565b935060808801359150808211156119eb578283fd5b506119f88882890161181a565b9150509295509295909350565b60008060008060808587031215611a1a578384fd5b8435935060208501359250604085013591506060850135611a3a81611ed8565b939692955090935050565b60008060008060008060c08789031215611a5d578081fd5b8635955060208701359450604087013593506060870135611a7d81611ed8565b9250608087013567ffffffffffffffff80821115611a99578283fd5b611aa58a838b0161181a565b935060a0890135915080821115611aba578283fd5b50611ac789828a0161181a565b9150509295509295509295565b6000815180845260208085019450808401835b83811015611b0357815187529582019590820190600101611ae7565b509495945050505050565b6000815480845260208085019450838352808320835b83811015611b0357815487529582019560019182019101611b24565b8051825260208101516020830152604081015160408301526060810151151560608301526000608082015160c06080850152611b7f60c0850182611ad4565b905060a083015184820360a0860152611b988282611ad4565b95945050505050565b6001600160a01b0384168152608060208201819052600090611bc590830185611b0e565b8281036040840152611bd78185611b0e565b838103606085015260048152636461746160e01b60208201529050604081019695505050505050565b6001600160a01b03841681526020810183905260408101829052608060608201819052600490820152636461746160e01b60a0820152600060c08201611b98565b6000602080830181845280855180835260408601915060408160051b8701019250838701855b82811015611c9557603f19888603018452611c83858351611b40565b94509285019290850190600101611c67565b5092979650505050505050565b6020808252825182820181905260009190848201906040850190845b81811015611d0757611cf48385518051825260208101516020830152604081015160408301526060810151151560608301525050565b9284019260809290920191600101611cbe565b50909695505050505050565b6020808252818101527f4f776e61626c653a2063616c6c6572206973206e6f7420746865206f776e6572604082015260600190565b60208082526029908201527f4d61726b6574506c61636545383a20616d6f756e74206d6f726520706c616e6e604082015268656420737570706c7960b81b606082015260800190565b60208082526025908201527f45384d61726b6574506c6163653a206c6f74206d757374206265206e6f742061604082015264637469766560d81b606082015260800190565b6020815260006118df6020830184611b40565b81518152602080830151908201526040808301519082015260608083015115159082015260808101610a54565b868152856020820152846040820152831515606082015260c060808201526000611e4360c0830185611ad4565b82810360a0840152611e558185611ad4565b9998505050505050505050565b60008219821115611e7557611e75611eac565b500190565b600082821015611e8c57611e8c611eac565b500390565b6000600019821415611ea557611ea5611eac565b5060010190565b634e487b7160e01b600052601160045260246000fd5b634e487b7160e01b600052604160045260246000fd5b801515811461163657600080fdfea2646970667358221220af5f0d6ae0ba39a2512d9007619fae73efa60135a78bdd7b480355b1b09e9cb064736f6c63430008040033",
  "devdoc": {
    "kind": "dev",
    "methods": {
      "owner()": {
        "details": "Returns the address of the current owner."
      },
      "renounceOwnership()": {
        "details": "Leaves the contract without owner. It will not be possible to call `onlyOwner` functions anymore. Can only be called by the current owner. NOTE: Renouncing ownership will leave the contract without an owner, thereby removing any functionality that is only available to the owner."
      },
      "transferOwnership(address)": {
        "details": "Transfers ownership of the contract to a new account (`newOwner`). Can only be called by the current owner."
      }
    },
    "version": 1
  },
  "userdoc": {
    "kind": "user",
    "methods": {},
    "version": 1
  },
  "storageLayout": {
    "storage": [
      {
        "astId": 3261,
        "contract": "contracts/E8MarketPlace.sol:E8MarketPlace",
        "label": "_owner",
        "offset": 0,
        "slot": "0",
        "type": "t_address"
      },
      {
        "astId": 3681,
        "contract": "contracts/E8MarketPlace.sol:E8MarketPlace",
        "label": "batchIdCounter",
        "offset": 0,
        "slot": "1",
        "type": "t_struct(Counter)3586_storage"
      },
      {
        "astId": 3684,
        "contract": "contracts/E8MarketPlace.sol:E8MarketPlace",
        "label": "nftE8",
        "offset": 0,
        "slot": "2",
        "type": "t_contract(IE8MintableNft)5752"
      },
      {
        "astId": 3687,
        "contract": "contracts/E8MarketPlace.sol:E8MarketPlace",
        "label": "energyToken",
        "offset": 0,
        "slot": "3",
        "type": "t_contract(IERC20)3558"
      },
      {
        "astId": 3692,
        "contract": "contracts/E8MarketPlace.sol:E8MarketPlace",
        "label": "tokenIdToLot",
        "offset": 0,
        "slot": "4",
        "type": "t_mapping(t_uint256,t_struct(Lot)3706_storage)"
      },
      {
        "astId": 3697,
        "contract": "contracts/E8MarketPlace.sol:E8MarketPlace",
        "label": "batchIdToBatchLot",
        "offset": 0,
        "slot": "5",
        "type": "t_mapping(t_uint256,t_struct(BatchLot)3721_storage)"
      }
    ],
    "types": {
      "t_address": {
        "encoding": "inplace",
        "label": "address",
        "numberOfBytes": "20"
      },
      "t_array(t_uint256)dyn_storage": {
        "base": "t_uint256",
        "encoding": "dynamic_array",
        "label": "uint256[]",
        "numberOfBytes": "32"
      },
      "t_bool": {
        "encoding": "inplace",
        "label": "bool",
        "numberOfBytes": "1"
      },
      "t_contract(IE8MintableNft)5752": {
        "encoding": "inplace",
        "label": "contract IE8MintableNft",
        "numberOfBytes": "20"
      },
      "t_contract(IERC20)3558": {
        "encoding": "inplace",
        "label": "contract IERC20",
        "numberOfBytes": "20"
      },
      "t_mapping(t_uint256,t_struct(BatchLot)3721_storage)": {
        "encoding": "mapping",
        "key": "t_uint256",
        "label": "mapping(uint256 => struct E8MarketPlace.BatchLot)",
        "numberOfBytes": "32",
        "value": "t_struct(BatchLot)3721_storage"
      },
      "t_mapping(t_uint256,t_struct(Lot)3706_storage)": {
        "encoding": "mapping",
        "key": "t_uint256",
        "label": "mapping(uint256 => struct E8MarketPlace.Lot)",
        "numberOfBytes": "32",
        "value": "t_struct(Lot)3706_storage"
      },
      "t_struct(BatchLot)3721_storage": {
        "encoding": "inplace",
        "label": "struct E8MarketPlace.BatchLot",
        "members": [
          {
            "astId": 3708,
            "contract": "contracts/E8MarketPlace.sol:E8MarketPlace",
            "label": "limit",
            "offset": 0,
            "slot": "0",
            "type": "t_uint256"
          },
          {
            "astId": 3710,
            "contract": "contracts/E8MarketPlace.sol:E8MarketPlace",
            "label": "supply",
            "offset": 0,
            "slot": "1",
            "type": "t_uint256"
          },
          {
            "astId": 3712,
            "contract": "contracts/E8MarketPlace.sol:E8MarketPlace",
            "label": "price",
            "offset": 0,
            "slot": "2",
            "type": "t_uint256"
          },
          {
            "astId": 3714,
            "contract": "contracts/E8MarketPlace.sol:E8MarketPlace",
            "label": "active",
            "offset": 0,
            "slot": "3",
            "type": "t_bool"
          },
          {
            "astId": 3717,
            "contract": "contracts/E8MarketPlace.sol:E8MarketPlace",
            "label": "ids",
            "offset": 0,
            "slot": "4",
            "type": "t_array(t_uint256)dyn_storage"
          },
          {
            "astId": 3720,
            "contract": "contracts/E8MarketPlace.sol:E8MarketPlace",
            "label": "amounts",
            "offset": 0,
            "slot": "5",
            "type": "t_array(t_uint256)dyn_storage"
          }
        ],
        "numberOfBytes": "192"
      },
      "t_struct(Counter)3586_storage": {
        "encoding": "inplace",
        "label": "struct Counters.Counter",
        "members": [
          {
            "astId": 3585,
            "contract": "contracts/E8MarketPlace.sol:E8MarketPlace",
            "label": "_value",
            "offset": 0,
            "slot": "0",
            "type": "t_uint256"
          }
        ],
        "numberOfBytes": "32"
      },
      "t_struct(Lot)3706_storage": {
        "encoding": "inplace",
        "label": "struct E8MarketPlace.Lot",
        "members": [
          {
            "astId": 3699,
            "contract": "contracts/E8MarketPlace.sol:E8MarketPlace",
            "label": "limit",
            "offset": 0,
            "slot": "0",
            "type": "t_uint256"
          },
          {
            "astId": 3701,
            "contract": "contracts/E8MarketPlace.sol:E8MarketPlace",
            "label": "supply",
            "offset": 0,
            "slot": "1",
            "type": "t_uint256"
          },
          {
            "astId": 3703,
            "contract": "contracts/E8MarketPlace.sol:E8MarketPlace",
            "label": "price",
            "offset": 0,
            "slot": "2",
            "type": "t_uint256"
          },
          {
            "astId": 3705,
            "contract": "contracts/E8MarketPlace.sol:E8MarketPlace",
            "label": "active",
            "offset": 0,
            "slot": "3",
            "type": "t_bool"
          }
        ],
        "numberOfBytes": "128"
      },
      "t_uint256": {
        "encoding": "inplace",
        "label": "uint256",
        "numberOfBytes": "32"
      }
    }
  }
}