{
  "address": "0x2Cc880bb3B6005a231bb9a24AbF2Fdb141B50cf3",
  "abi": [
    {
      "inputs": [],
      "stateMutability": "nonpayable",
      "type": "constructor"
    },
    {
      "anonymous": false,
      "inputs": [
        {
          "indexed": true,
          "internalType": "address",
          "name": "account",
          "type": "address"
        },
        {
          "indexed": true,
          "internalType": "address",
          "name": "operator",
          "type": "address"
        },
        {
          "indexed": false,
          "internalType": "bool",
          "name": "approved",
          "type": "bool"
        }
      ],
      "name": "ApprovalForAll",
      "type": "event"
    },
    {
      "anonymous": false,
      "inputs": [
        {
          "indexed": false,
          "internalType": "address",
          "name": "account",
          "type": "address"
        }
      ],
      "name": "Paused",
      "type": "event"
    },
    {
      "anonymous": false,
      "inputs": [
        {
          "indexed": true,
          "internalType": "bytes32",
          "name": "role",
          "type": "bytes32"
        },
        {
          "indexed": true,
          "internalType": "bytes32",
          "name": "previousAdminRole",
          "type": "bytes32"
        },
        {
          "indexed": true,
          "internalType": "bytes32",
          "name": "newAdminRole",
          "type": "bytes32"
        }
      ],
      "name": "RoleAdminChanged",
      "type": "event"
    },
    {
      "anonymous": false,
      "inputs": [
        {
          "indexed": true,
          "internalType": "bytes32",
          "name": "role",
          "type": "bytes32"
        },
        {
          "indexed": true,
          "internalType": "address",
          "name": "account",
          "type": "address"
        },
        {
          "indexed": true,
          "internalType": "address",
          "name": "sender",
          "type": "address"
        }
      ],
      "name": "RoleGranted",
      "type": "event"
    },
    {
      "anonymous": false,
      "inputs": [
        {
          "indexed": true,
          "internalType": "bytes32",
          "name": "role",
          "type": "bytes32"
        },
        {
          "indexed": true,
          "internalType": "address",
          "name": "account",
          "type": "address"
        },
        {
          "indexed": true,
          "internalType": "address",
          "name": "sender",
          "type": "address"
        }
      ],
      "name": "RoleRevoked",
      "type": "event"
    },
    {
      "anonymous": false,
      "inputs": [
        {
          "indexed": false,
          "internalType": "string",
          "name": "newBaseURI",
          "type": "string"
        }
      ],
      "name": "SetBaseURI",
      "type": "event"
    },
    {
      "anonymous": false,
      "inputs": [
        {
          "indexed": false,
          "internalType": "uint256",
          "name": "tokenId",
          "type": "uint256"
        },
        {
          "indexed": false,
          "internalType": "string",
          "name": "newTokenUri",
          "type": "string"
        }
      ],
      "name": "SetTokenURI",
      "type": "event"
    },
    {
      "anonymous": false,
      "inputs": [
        {
          "indexed": true,
          "internalType": "address",
          "name": "operator",
          "type": "address"
        },
        {
          "indexed": true,
          "internalType": "address",
          "name": "from",
          "type": "address"
        },
        {
          "indexed": true,
          "internalType": "address",
          "name": "to",
          "type": "address"
        },
        {
          "indexed": false,
          "internalType": "uint256[]",
          "name": "ids",
          "type": "uint256[]"
        },
        {
          "indexed": false,
          "internalType": "uint256[]",
          "name": "values",
          "type": "uint256[]"
        }
      ],
      "name": "TransferBatch",
      "type": "event"
    },
    {
      "anonymous": false,
      "inputs": [
        {
          "indexed": true,
          "internalType": "address",
          "name": "operator",
          "type": "address"
        },
        {
          "indexed": true,
          "internalType": "address",
          "name": "from",
          "type": "address"
        },
        {
          "indexed": true,
          "internalType": "address",
          "name": "to",
          "type": "address"
        },
        {
          "indexed": false,
          "internalType": "uint256",
          "name": "id",
          "type": "uint256"
        },
        {
          "indexed": false,
          "internalType": "uint256",
          "name": "value",
          "type": "uint256"
        }
      ],
      "name": "TransferSingle",
      "type": "event"
    },
    {
      "anonymous": false,
      "inputs": [
        {
          "indexed": false,
          "internalType": "string",
          "name": "value",
          "type": "string"
        },
        {
          "indexed": true,
          "internalType": "uint256",
          "name": "id",
          "type": "uint256"
        }
      ],
      "name": "URI",
      "type": "event"
    },
    {
      "anonymous": false,
      "inputs": [
        {
          "indexed": false,
          "internalType": "address",
          "name": "account",
          "type": "address"
        }
      ],
      "name": "Unpaused",
      "type": "event"
    },
    {
      "inputs": [],
      "name": "DEFAULT_ADMIN_ROLE",
      "outputs": [
        {
          "internalType": "bytes32",
          "name": "",
          "type": "bytes32"
        }
      ],
      "stateMutability": "view",
      "type": "function"
    },
    {
      "inputs": [],
      "name": "MINTER_ROLE",
      "outputs": [
        {
          "internalType": "bytes32",
          "name": "",
          "type": "bytes32"
        }
      ],
      "stateMutability": "view",
      "type": "function"
    },
    {
      "inputs": [],
      "name": "PAUSER_ROLE",
      "outputs": [
        {
          "internalType": "bytes32",
          "name": "",
          "type": "bytes32"
        }
      ],
      "stateMutability": "view",
      "type": "function"
    },
    {
      "inputs": [],
      "name": "URI_SETTER_ROLE",
      "outputs": [
        {
          "internalType": "bytes32",
          "name": "",
          "type": "bytes32"
        }
      ],
      "stateMutability": "view",
      "type": "function"
    },
    {
      "inputs": [
        {
          "internalType": "address",
          "name": "account",
          "type": "address"
        },
        {
          "internalType": "uint256",
          "name": "id",
          "type": "uint256"
        }
      ],
      "name": "balanceOf",
      "outputs": [
        {
          "internalType": "uint256",
          "name": "",
          "type": "uint256"
        }
      ],
      "stateMutability": "view",
      "type": "function"
    },
    {
      "inputs": [
        {
          "internalType": "address[]",
          "name": "accounts",
          "type": "address[]"
        },
        {
          "internalType": "uint256[]",
          "name": "ids",
          "type": "uint256[]"
        }
      ],
      "name": "balanceOfBatch",
      "outputs": [
        {
          "internalType": "uint256[]",
          "name": "",
          "type": "uint256[]"
        }
      ],
      "stateMutability": "view",
      "type": "function"
    },
    {
      "inputs": [
        {
          "internalType": "uint256[]",
          "name": "tokenIds",
          "type": "uint256[]"
        }
      ],
      "name": "batchTokenURI",
      "outputs": [
        {
          "internalType": "string[]",
          "name": "",
          "type": "string[]"
        }
      ],
      "stateMutability": "view",
      "type": "function"
    },
    {
      "inputs": [
        {
          "internalType": "address",
          "name": "account",
          "type": "address"
        },
        {
          "internalType": "uint256",
          "name": "id",
          "type": "uint256"
        },
        {
          "internalType": "uint256",
          "name": "value",
          "type": "uint256"
        }
      ],
      "name": "burn",
      "outputs": [],
      "stateMutability": "nonpayable",
      "type": "function"
    },
    {
      "inputs": [
        {
          "internalType": "address",
          "name": "account",
          "type": "address"
        },
        {
          "internalType": "uint256[]",
          "name": "ids",
          "type": "uint256[]"
        },
        {
          "internalType": "uint256[]",
          "name": "values",
          "type": "uint256[]"
        }
      ],
      "name": "burnBatch",
      "outputs": [],
      "stateMutability": "nonpayable",
      "type": "function"
    },
    {
      "inputs": [
        {
          "internalType": "uint256",
          "name": "id",
          "type": "uint256"
        }
      ],
      "name": "exists",
      "outputs": [
        {
          "internalType": "bool",
          "name": "",
          "type": "bool"
        }
      ],
      "stateMutability": "view",
      "type": "function"
    },
    {
      "inputs": [],
      "name": "getBaseURI",
      "outputs": [
        {
          "internalType": "string",
          "name": "",
          "type": "string"
        }
      ],
      "stateMutability": "view",
      "type": "function"
    },
    {
      "inputs": [],
      "name": "getCurrentId",
      "outputs": [
        {
          "internalType": "uint256",
          "name": "",
          "type": "uint256"
        }
      ],
      "stateMutability": "view",
      "type": "function"
    },
    {
      "inputs": [
        {
          "internalType": "bytes32",
          "name": "role",
          "type": "bytes32"
        }
      ],
      "name": "getRoleAdmin",
      "outputs": [
        {
          "internalType": "bytes32",
          "name": "",
          "type": "bytes32"
        }
      ],
      "stateMutability": "view",
      "type": "function"
    },
    {
      "inputs": [
        {
          "internalType": "bytes32",
          "name": "role",
          "type": "bytes32"
        },
        {
          "internalType": "address",
          "name": "account",
          "type": "address"
        }
      ],
      "name": "grantRole",
      "outputs": [],
      "stateMutability": "nonpayable",
      "type": "function"
    },
    {
      "inputs": [
        {
          "internalType": "bytes32",
          "name": "role",
          "type": "bytes32"
        },
        {
          "internalType": "address",
          "name": "account",
          "type": "address"
        }
      ],
      "name": "hasRole",
      "outputs": [
        {
          "internalType": "bool",
          "name": "",
          "type": "bool"
        }
      ],
      "stateMutability": "view",
      "type": "function"
    },
    {
      "inputs": [
        {
          "internalType": "address",
          "name": "account",
          "type": "address"
        },
        {
          "internalType": "address",
          "name": "operator",
          "type": "address"
        }
      ],
      "name": "isApprovedForAll",
      "outputs": [
        {
          "internalType": "bool",
          "name": "",
          "type": "bool"
        }
      ],
      "stateMutability": "view",
      "type": "function"
    },
    {
      "inputs": [
        {
          "internalType": "uint256",
          "name": "tokenId",
          "type": "uint256"
        }
      ],
      "name": "isExists",
      "outputs": [
        {
          "internalType": "bool",
          "name": "",
          "type": "bool"
        }
      ],
      "stateMutability": "view",
      "type": "function"
    },
    {
      "inputs": [
        {
          "internalType": "address",
          "name": "account",
          "type": "address"
        },
        {
          "internalType": "uint256",
          "name": "amount",
          "type": "uint256"
        },
        {
          "internalType": "string",
          "name": "tokenUri",
          "type": "string"
        },
        {
          "internalType": "bytes",
          "name": "data",
          "type": "bytes"
        }
      ],
      "name": "mint",
      "outputs": [],
      "stateMutability": "nonpayable",
      "type": "function"
    },
    {
      "inputs": [
        {
          "internalType": "address",
          "name": "to",
          "type": "address"
        },
        {
          "internalType": "uint256[]",
          "name": "amounts",
          "type": "uint256[]"
        },
        {
          "internalType": "string[]",
          "name": "uris",
          "type": "string[]"
        },
        {
          "internalType": "bytes",
          "name": "data",
          "type": "bytes"
        }
      ],
      "name": "mintBatch",
      "outputs": [],
      "stateMutability": "nonpayable",
      "type": "function"
    },
    {
      "inputs": [
        {
          "internalType": "address",
          "name": "account",
          "type": "address"
        },
        {
          "internalType": "uint256",
          "name": "id",
          "type": "uint256"
        },
        {
          "internalType": "uint256",
          "name": "amount",
          "type": "uint256"
        },
        {
          "internalType": "bytes",
          "name": "data",
          "type": "bytes"
        }
      ],
      "name": "mintExists",
      "outputs": [],
      "stateMutability": "nonpayable",
      "type": "function"
    },
    {
      "inputs": [
        {
          "internalType": "address",
          "name": "to",
          "type": "address"
        },
        {
          "internalType": "uint256[]",
          "name": "ids",
          "type": "uint256[]"
        },
        {
          "internalType": "uint256[]",
          "name": "amounts",
          "type": "uint256[]"
        },
        {
          "internalType": "bytes",
          "name": "data",
          "type": "bytes"
        }
      ],
      "name": "mintExistsBatch",
      "outputs": [],
      "stateMutability": "nonpayable",
      "type": "function"
    },
    {
      "inputs": [],
      "name": "pause",
      "outputs": [],
      "stateMutability": "nonpayable",
      "type": "function"
    },
    {
      "inputs": [],
      "name": "paused",
      "outputs": [
        {
          "internalType": "bool",
          "name": "",
          "type": "bool"
        }
      ],
      "stateMutability": "view",
      "type": "function"
    },
    {
      "inputs": [
        {
          "internalType": "bytes32",
          "name": "role",
          "type": "bytes32"
        },
        {
          "internalType": "address",
          "name": "account",
          "type": "address"
        }
      ],
      "name": "renounceRole",
      "outputs": [],
      "stateMutability": "nonpayable",
      "type": "function"
    },
    {
      "inputs": [
        {
          "internalType": "bytes32",
          "name": "role",
          "type": "bytes32"
        },
        {
          "internalType": "address",
          "name": "account",
          "type": "address"
        }
      ],
      "name": "revokeRole",
      "outputs": [],
      "stateMutability": "nonpayable",
      "type": "function"
    },
    {
      "inputs": [
        {
          "internalType": "address",
          "name": "from",
          "type": "address"
        },
        {
          "internalType": "address",
          "name": "to",
          "type": "address"
        },
        {
          "internalType": "uint256[]",
          "name": "ids",
          "type": "uint256[]"
        },
        {
          "internalType": "uint256[]",
          "name": "amounts",
          "type": "uint256[]"
        },
        {
          "internalType": "bytes",
          "name": "data",
          "type": "bytes"
        }
      ],
      "name": "safeBatchTransferFrom",
      "outputs": [],
      "stateMutability": "nonpayable",
      "type": "function"
    },
    {
      "inputs": [
        {
          "internalType": "address",
          "name": "from",
          "type": "address"
        },
        {
          "internalType": "address",
          "name": "to",
          "type": "address"
        },
        {
          "internalType": "uint256",
          "name": "id",
          "type": "uint256"
        },
        {
          "internalType": "uint256",
          "name": "amount",
          "type": "uint256"
        },
        {
          "internalType": "bytes",
          "name": "data",
          "type": "bytes"
        }
      ],
      "name": "safeTransferFrom",
      "outputs": [],
      "stateMutability": "nonpayable",
      "type": "function"
    },
    {
      "inputs": [
        {
          "internalType": "address",
          "name": "operator",
          "type": "address"
        },
        {
          "internalType": "bool",
          "name": "approved",
          "type": "bool"
        }
      ],
      "name": "setApprovalForAll",
      "outputs": [],
      "stateMutability": "nonpayable",
      "type": "function"
    },
    {
      "inputs": [
        {
          "internalType": "uint256",
          "name": "tokenId",
          "type": "uint256"
        },
        {
          "internalType": "string",
          "name": "newTokenUri",
          "type": "string"
        }
      ],
      "name": "setTokenURI",
      "outputs": [
        {
          "internalType": "bool",
          "name": "",
          "type": "bool"
        }
      ],
      "stateMutability": "nonpayable",
      "type": "function"
    },
    {
      "inputs": [
        {
          "internalType": "string",
          "name": "newuri",
          "type": "string"
        }
      ],
      "name": "setURI",
      "outputs": [],
      "stateMutability": "nonpayable",
      "type": "function"
    },
    {
      "inputs": [
        {
          "internalType": "bytes4",
          "name": "interfaceId",
          "type": "bytes4"
        }
      ],
      "name": "supportsInterface",
      "outputs": [
        {
          "internalType": "bool",
          "name": "",
          "type": "bool"
        }
      ],
      "stateMutability": "view",
      "type": "function"
    },
    {
      "inputs": [
        {
          "internalType": "uint256",
          "name": "tokenId",
          "type": "uint256"
        }
      ],
      "name": "tokenURI",
      "outputs": [
        {
          "internalType": "string",
          "name": "",
          "type": "string"
        }
      ],
      "stateMutability": "view",
      "type": "function"
    },
    {
      "inputs": [
        {
          "internalType": "uint256",
          "name": "id",
          "type": "uint256"
        }
      ],
      "name": "totalSupply",
      "outputs": [
        {
          "internalType": "uint256",
          "name": "",
          "type": "uint256"
        }
      ],
      "stateMutability": "view",
      "type": "function"
    },
    {
      "inputs": [],
      "name": "unpause",
      "outputs": [],
      "stateMutability": "nonpayable",
      "type": "function"
    },
    {
      "inputs": [
        {
          "internalType": "uint256",
          "name": "tokenId",
          "type": "uint256"
        }
      ],
      "name": "uri",
      "outputs": [
        {
          "internalType": "string",
          "name": "",
          "type": "string"
        }
      ],
      "stateMutability": "view",
      "type": "function"
    }
  ],
  "transactionHash": "0x1e7c8ab3238a7e7b5b1cb88d386c7a8171e751c23223c533058c80ae1019f607",
  "args": [],
  "solcInputHash": "1758b7fedd46d6d5f39a97c560ebcf06",
  "bytecode": "0x60c06040526007608081905266697066733a2f2f60c81b60a0908152620000289190816200023a565b503480156200003657600080fd5b50600780546200004690620002e0565b80601f01602080910402602001604051908101604052809291908181526020018280546200007490620002e0565b8015620000c55780601f106200009957610100808354040283529160200191620000c5565b820191906000526020600020905b815481529060010190602001808311620000a757829003601f168201915b5050505050620000db816200017d60201b60201c565b506004805460ff19169055620000f360003362000196565b6200011f7f7804d923f43a17d325d77e781528e0793b2edd9890ab45fc64efd7b4b427744c3362000196565b6200014b7f65d7a28e3265b37a6474929f336521b332c1681b933f6cb9f3376673440d862a3362000196565b620001777f9f2df0fed2c77648de5860a4cc508cd0818c85b8b8a1ab4ceeef8d981c8956a63362000196565b6200031d565b8051620001929060029060208401906200023a565b5050565b60008281526003602090815260408083206001600160a01b038516845290915290205460ff16620001925760008281526003602090815260408083206001600160a01b03851684529091529020805460ff19166001179055620001f63390565b6001600160a01b0316816001600160a01b0316837f2f8788117e7eff1d82e926ec794901d17c78024a50270940304540a733656f0d60405160405180910390a45050565b8280546200024890620002e0565b90600052602060002090601f0160209004810192826200026c5760008555620002b7565b82601f106200028757805160ff1916838001178555620002b7565b82800160010185558215620002b7579182015b82811115620002b75782518255916020019190600101906200029a565b50620002c5929150620002c9565b5090565b5b80821115620002c55760008155600101620002ca565b600181811c90821680620002f557607f821691505b602082108114156200031757634e487b7160e01b600052602260045260246000fd5b50919050565b6132a7806200032d6000396000f3fe608060405234801561001057600080fd5b50600436106102105760003560e01c80636d94f13a11610125578063c87b56dd116100ad578063e00529061161007c578063e00529061461049e578063e63ab1e9146104b1578063e985e9c5146104d8578063f242432a14610514578063f5298aca1461052757600080fd5b8063c87b56dd14610450578063d2b04fd614610463578063d539139314610476578063d547741f1461048b57600080fd5b806391d14854116100f457806391d14854146103ef5780639d36788e14610402578063a217fddf14610415578063a22cb4651461041d578063bd85b0391461043057600080fd5b80636d94f13a14610398578063714c5398146103b85780637f345710146103c05780638456cb59146103e757600080fd5b80632f2ff15d116101a85780634e1273f4116101775780634e1273f4146103305780634f558e79146103505780635c975abb146103725780636b20c4541461037d5780636c1438621461039057600080fd5b80632f2ff15d146102ef57806336568abe146103025780633f4ba83a14610315578063445e3fad1461031d57600080fd5b8063162094c4116101e4578063162094c414610293578063193d9110146102a6578063248a9ca3146102b95780632eb2c2d6146102dc57600080fd5b8062fdd58e1461021557806301ffc9a71461023b57806302fe53051461025e5780630e89341c14610273575b600080fd5b6102286102233660046127e8565b61053a565b6040519081526020015b60405180910390f35b61024e610249366004612a1f565b6105d1565b6040519015158152602001610232565b61027161026c366004612a57565b6105e2565b005b6102866102813660046129e5565b610665565b6040516102329190612d90565b61024e6102a1366004612a89565b610740565b6102716102b436600461288f565b6107d0565b6102286102c73660046129e5565b60009081526003602052604090206001015490565b6102716102ea36600461249d565b610857565b6102716102fd3660046129fd565b6108e7565b6102716103103660046129fd565b610912565b610271610990565b61027161032b366004612726565b6109c6565b61034361033e3660046128e1565b610aa5565b6040516102329190612d4f565b61024e61035e3660046129e5565b600090815260056020526040902054151590565b60045460ff1661024e565b61027161038b3660046126b6565b610c06565b610228610c49565b6103ab6103a63660046129ab565b610c59565b6040516102329190612cee565b610286610da3565b6102287f7804d923f43a17d325d77e781528e0793b2edd9890ab45fc64efd7b4b427744c81565b610271610e35565b61024e6103fd3660046129fd565b610e68565b61024e6104103660046129e5565b610e93565b610228600081565b61027161042b3660046127ae565b610ea9565b61022861043e3660046129e5565b60009081526005602052604090205490565b61028661045e3660046129e5565b610eb4565b610271610471366004612811565b610ebf565b61022860008051602061325283398151915281565b6102716104993660046129fd565b610f3f565b6102716104ac3660046125a4565b610f65565b6102287f65d7a28e3265b37a6474929f336521b332c1681b933f6cb9f3376673440d862a81565b61024e6104e636600461246b565b6001600160a01b03918216600090815260016020908152604080832093909416825291909152205460ff1690565b610271610522366004612542565b6110a4565b61027161053536600461285d565b6110e9565b60006001600160a01b0383166105ab5760405162461bcd60e51b815260206004820152602b60248201527f455243313135353a2062616c616e636520717565727920666f7220746865207a60448201526a65726f206164647265737360a81b60648201526084015b60405180910390fd5b506000908152602081815260408083206001600160a01b03949094168352929052205490565b60006105dc8261112c565b92915050565b7f7804d923f43a17d325d77e781528e0793b2edd9890ab45fc64efd7b4b427744c61060d8133611151565b81516106209060079060208501906122d4565b5061062a826111b5565b7f23c8c9488efebfd474e85a7956de6f39b17c7ab88502d42a623db2d8e382bbaa826040516106599190612d90565b60405180910390a15050565b6000818152600560205260409020546060906106da5760405162461bcd60e51b815260206004820152602e60248201527f45384d696e7461626c654e66743a2055524920717565727920666f72206e6f6e60448201526d32bc34b9ba32b73a103a37b5b2b760911b60648201526084016105a2565b6000600780546106e9906130ec565b90501161070557604051806020016040528060008152506105dc565b60076008600084815260200190815260200160002060405160200161072b929190612bc1565b60405160208183030381529060405292915050565b60007f7804d923f43a17d325d77e781528e0793b2edd9890ab45fc64efd7b4b427744c61076d8133611151565b6000848152600860209081526040909120845161078c928601906122d4565b507fd2d827dddfc9c9a02afc5fc68d3251684b36e213a7999ebd90a861f25df4077e84846040516107be92919061301b565b60405180910390a15060019392505050565b6000805160206132528339815191526107e98133611151565b6000848152600560205260409020546108445760405162461bcd60e51b815260206004820152601f60248201527f45384d696e7461626c654e66743a20746f6b656e20646f6e742065786573740060448201526064016105a2565b610850858585856111c8565b5050505050565b6001600160a01b038516331480610873575061087385336104e6565b6108da5760405162461bcd60e51b815260206004820152603260248201527f455243313135353a207472616e736665722063616c6c6572206973206e6f74206044820152711bdddb995c881b9bdc88185c1c1c9bdd995960721b60648201526084016105a2565b610850858585858561129e565b6000828152600360205260409020600101546109038133611151565b61090d838361145c565b505050565b6001600160a01b03811633146109825760405162461bcd60e51b815260206004820152602f60248201527f416363657373436f6e74726f6c3a2063616e206f6e6c792072656e6f756e636560448201526e103937b632b9903337b91039b2b63360891b60648201526084016105a2565b61098c82826114e2565b5050565b7f65d7a28e3265b37a6474929f336521b332c1681b933f6cb9f3376673440d862a6109bb8133611151565b6109c3611549565b50565b6000805160206132528339815191526109df8133611151565b60005b8451811015610a9857610a2a858281518110610a0e57634e487b7160e01b600052603260045260246000fd5b6020026020010151600090815260056020526040902054151590565b610a865760405162461bcd60e51b815260206004820152602760248201527f45384d696e7461626c654e66743a206f6e65206f6620746f6b656e7320646f6e6044820152661d08195e1a5cdd60ca1b60648201526084016105a2565b80610a9081613153565b9150506109e2565b50610850858585856115dc565b60608151835114610b0a5760405162461bcd60e51b815260206004820152602960248201527f455243313135353a206163636f756e747320616e6420696473206c656e677468604482015268040dad2e6dac2e8c6d60bb1b60648201526084016105a2565b600083516001600160401b03811115610b3357634e487b7160e01b600052604160045260246000fd5b604051908082528060200260200182016040528015610b5c578160200160208202803683370190505b50905060005b8451811015610bfe57610bc3858281518110610b8e57634e487b7160e01b600052603260045260246000fd5b6020026020010151858381518110610bb657634e487b7160e01b600052603260045260246000fd5b602002602001015161053a565b828281518110610be357634e487b7160e01b600052603260045260246000fd5b6020908102919091010152610bf781613153565b9050610b62565b509392505050565b6001600160a01b038316331480610c225750610c2283336104e6565b610c3e5760405162461bcd60e51b81526004016105a290612e2f565b61090d838383611752565b6000610c5460065490565b905090565b6060600082516001600160401b03811115610c8457634e487b7160e01b600052604160045260246000fd5b604051908082528060200260200182016040528015610cb757816020015b6060815260200190600190039081610ca25790505b50905060005b8351811015610d9c57610ce9848281518110610a0e57634e487b7160e01b600052603260045260246000fd5b15610d4e57610d1e848281518110610d1157634e487b7160e01b600052603260045260246000fd5b6020026020010151610665565b828281518110610d3e57634e487b7160e01b600052603260045260246000fd5b6020026020010181905250610d8a565b60405180602001604052806000815250828281518110610d7e57634e487b7160e01b600052603260045260246000fd5b60200260200101819052505b80610d9481613153565b915050610cbd565b5092915050565b606060078054610db2906130ec565b80601f0160208091040260200160405190810160405280929190818152602001828054610dde906130ec565b8015610e2b5780601f10610e0057610100808354040283529160200191610e2b565b820191906000526020600020905b815481529060010190602001808311610e0e57829003601f168201915b5050505050905090565b7f65d7a28e3265b37a6474929f336521b332c1681b933f6cb9f3376673440d862a610e608133611151565b6109c36118fc565b60009182526003602090815260408084206001600160a01b0393909316845291905290205460ff1690565b60008181526005602052604081205415156105dc565b61098c338383611977565b60606105dc82610665565b600080516020613252833981519152610ed88133611151565b6000610ee360065490565b60008181526005602052604090205490915015610f125760405162461bcd60e51b81526004016105a290612e78565b610f1e868287866111c8565b610f288185610740565b50610f37600680546001019055565b505050505050565b600082815260036020526040902060010154610f5b8133611151565b61090d83836114e2565b600080516020613252833981519152610f7e8133611151565b600083516001600160401b03811115610fa757634e487b7160e01b600052604160045260246000fd5b604051908082528060200260200182016040528015610fd0578160200160208202803683370190505b50905060005b8151811015611097576000610fea60065490565b9050610ffa600680546001019055565b600081815260056020526040902054156110265760405162461bcd60e51b81526004016105a290612e78565b6110578187848151811061104a57634e487b7160e01b600052603260045260246000fd5b6020026020010151610740565b508083838151811061107957634e487b7160e01b600052603260045260246000fd5b6020908102919091010152508061108f81613153565b915050610fd6565b50610f37868287866115dc565b6001600160a01b0385163314806110c057506110c085336104e6565b6110dc5760405162461bcd60e51b81526004016105a290612e2f565b6108508585858585611a58565b6001600160a01b038316331480611105575061110583336104e6565b6111215760405162461bcd60e51b81526004016105a290612e2f565b61090d838383611b75565b60006001600160e01b03198216637965db0b60e01b14806105dc57506105dc82611c76565b61115b8282610e68565b61098c57611173816001600160a01b03166014611cc6565b61117e836020611cc6565b60405160200161118f929190612bd6565b60408051601f198184030181529082905262461bcd60e51b82526105a291600401612d90565b805161098c9060029060208401906122d4565b6001600160a01b0384166111ee5760405162461bcd60e51b81526004016105a290612fda565b3361120e816000876111ff88611eae565b61120888611eae565b87611f07565b6000848152602081815260408083206001600160a01b03891684529091528120805485929061123e908490613057565b909155505060408051858152602081018590526001600160a01b0380881692600092918516917fc3d58168c5ae7397731d063d5bbf3d657854427343f4c083240f7aacaa2d0f62910160405180910390a461085081600087878787611f5b565b81518351146112bf5760405162461bcd60e51b81526004016105a290612f92565b6001600160a01b0384166112e55760405162461bcd60e51b81526004016105a290612ec0565b336112f4818787878787611f07565b60005b84518110156113f657600085828151811061132257634e487b7160e01b600052603260045260246000fd5b60200260200101519050600085838151811061134e57634e487b7160e01b600052603260045260246000fd5b602090810291909101810151600084815280835260408082206001600160a01b038e16835290935291909120549091508181101561139e5760405162461bcd60e51b81526004016105a290612f48565b6000838152602081815260408083206001600160a01b038e8116855292528083208585039055908b168252812080548492906113db908490613057565b92505081905550505050806113ef90613153565b90506112f7565b50846001600160a01b0316866001600160a01b0316826001600160a01b03167f4a39dc06d4c0dbc64b70af90fd698a233a518aa5d07e595d983b8c0526c8f7fb8787604051611446929190612d62565b60405180910390a4610f378187878787876120c6565b6114668282610e68565b61098c5760008281526003602090815260408083206001600160a01b03851684529091529020805460ff1916600117905561149e3390565b6001600160a01b0316816001600160a01b0316837f2f8788117e7eff1d82e926ec794901d17c78024a50270940304540a733656f0d60405160405180910390a45050565b6114ec8282610e68565b1561098c5760008281526003602090815260408083206001600160a01b0385168085529252808320805460ff1916905551339285917ff6391f5c32d9c69d2a47ea670b442974b53935d1edc7fd64eb21e047a839171b9190a45050565b60045460ff166115925760405162461bcd60e51b815260206004820152601460248201527314185d5cd8589b194e881b9bdd081c185d5cd95960621b60448201526064016105a2565b6004805460ff191690557f5db9ee0a495bf2e6ff9c91a7834c1ba4fdd244a5e8aa4e537bd38aeae4b073aa335b6040516001600160a01b03909116815260200160405180910390a1565b6001600160a01b0384166116025760405162461bcd60e51b81526004016105a290612fda565b81518351146116235760405162461bcd60e51b81526004016105a290612f92565b3361163381600087878787611f07565b60005b84518110156116ea5783818151811061165f57634e487b7160e01b600052603260045260246000fd5b602002602001015160008087848151811061168a57634e487b7160e01b600052603260045260246000fd5b602002602001015181526020019081526020016000206000886001600160a01b03166001600160a01b0316815260200190815260200160002060008282546116d29190613057565b909155508190506116e281613153565b915050611636565b50846001600160a01b031660006001600160a01b0316826001600160a01b03167f4a39dc06d4c0dbc64b70af90fd698a233a518aa5d07e595d983b8c0526c8f7fb878760405161173b929190612d62565b60405180910390a4610850816000878787876120c6565b6001600160a01b0383166117785760405162461bcd60e51b81526004016105a290612f05565b80518251146117995760405162461bcd60e51b81526004016105a290612f92565b60003390506117bc81856000868660405180602001604052806000815250611f07565b60005b835181101561189d5760008482815181106117ea57634e487b7160e01b600052603260045260246000fd5b60200260200101519050600084838151811061181657634e487b7160e01b600052603260045260246000fd5b602090810291909101810151600084815280835260408082206001600160a01b038c1683529093529190912054909150818110156118665760405162461bcd60e51b81526004016105a290612deb565b6000928352602083815260408085206001600160a01b038b168652909152909220910390558061189581613153565b9150506117bf565b5060006001600160a01b0316846001600160a01b0316826001600160a01b03167f4a39dc06d4c0dbc64b70af90fd698a233a518aa5d07e595d983b8c0526c8f7fb86866040516118ee929190612d62565b60405180910390a450505050565b60045460ff16156119425760405162461bcd60e51b815260206004820152601060248201526f14185d5cd8589b194e881c185d5cd95960821b60448201526064016105a2565b6004805460ff191660011790557f62e78cea01bee320cd4e420270b5ea74000d11b0c9f74754ebdbfc544b05a2586115bf3390565b816001600160a01b0316836001600160a01b031614156119eb5760405162461bcd60e51b815260206004820152602960248201527f455243313135353a2073657474696e6720617070726f76616c20737461747573604482015268103337b91039b2b63360b91b60648201526084016105a2565b6001600160a01b03838116600081815260016020908152604080832094871680845294825291829020805460ff191686151590811790915591519182527f17307eab39ab6107e8899845ad3d59bd9653f200f220920489ca2b5937696c31910160405180910390a3505050565b6001600160a01b038416611a7e5760405162461bcd60e51b81526004016105a290612ec0565b33611a8e8187876111ff88611eae565b6000848152602081815260408083206001600160a01b038a16845290915290205483811015611acf5760405162461bcd60e51b81526004016105a290612f48565b6000858152602081815260408083206001600160a01b038b8116855292528083208785039055908816825281208054869290611b0c908490613057565b909155505060408051868152602081018690526001600160a01b03808916928a821692918616917fc3d58168c5ae7397731d063d5bbf3d657854427343f4c083240f7aacaa2d0f62910160405180910390a4611b6c828888888888611f5b565b50505050505050565b6001600160a01b038316611b9b5760405162461bcd60e51b81526004016105a290612f05565b33611bca81856000611bac87611eae565b611bb587611eae565b60405180602001604052806000815250611f07565b6000838152602081815260408083206001600160a01b038816845290915290205482811015611c0b5760405162461bcd60e51b81526004016105a290612deb565b6000848152602081815260408083206001600160a01b03898116808652918452828520888703905582518981529384018890529092908616917fc3d58168c5ae7397731d063d5bbf3d657854427343f4c083240f7aacaa2d0f62910160405180910390a45050505050565b60006001600160e01b03198216636cdb3d1360e11b1480611ca757506001600160e01b031982166303a24d0760e21b145b806105dc57506301ffc9a760e01b6001600160e01b03198316146105dc565b60606000611cd583600261306f565b611ce0906002613057565b6001600160401b03811115611d0557634e487b7160e01b600052604160045260246000fd5b6040519080825280601f01601f191660200182016040528015611d2f576020820181803683370190505b509050600360fc1b81600081518110611d5857634e487b7160e01b600052603260045260246000fd5b60200101906001600160f81b031916908160001a905350600f60fb1b81600181518110611d9557634e487b7160e01b600052603260045260246000fd5b60200101906001600160f81b031916908160001a9053506000611db984600261306f565b611dc4906001613057565b90505b6001811115611e58576f181899199a1a9b1b9c1cb0b131b232b360811b85600f1660108110611e0657634e487b7160e01b600052603260045260246000fd5b1a60f81b828281518110611e2a57634e487b7160e01b600052603260045260246000fd5b60200101906001600160f81b031916908160001a90535060049490941c93611e51816130d5565b9050611dc7565b508315611ea75760405162461bcd60e51b815260206004820181905260248201527f537472696e67733a20686578206c656e67746820696e73756666696369656e7460448201526064016105a2565b9392505050565b60408051600180825281830190925260609160009190602080830190803683370190505090508281600081518110611ef657634e487b7160e01b600052603260045260246000fd5b602090810291909101015292915050565b60045460ff1615611f4d5760405162461bcd60e51b815260206004820152601060248201526f14185d5cd8589b194e881c185d5cd95960821b60448201526064016105a2565b610f37868686868686612190565b6001600160a01b0384163b15610f375760405163f23a6e6160e01b81526001600160a01b0385169063f23a6e6190611f9f9089908990889088908890600401612ca9565b602060405180830381600087803b158015611fb957600080fd5b505af1925050508015611fe9575060408051601f3d908101601f19168201909252611fe691810190612a3b565b60015b61209657611ff561319a565b806308c379a0141561202f575061200a6131b2565b806120155750612031565b8060405162461bcd60e51b81526004016105a29190612d90565b505b60405162461bcd60e51b815260206004820152603460248201527f455243313135353a207472616e7366657220746f206e6f6e20455243313135356044820152732932b1b2b4bb32b91034b6b83632b6b2b73a32b960611b60648201526084016105a2565b6001600160e01b0319811663f23a6e6160e01b14611b6c5760405162461bcd60e51b81526004016105a290612da3565b6001600160a01b0384163b15610f375760405163bc197c8160e01b81526001600160a01b0385169063bc197c819061210a9089908990889088908890600401612c4b565b602060405180830381600087803b15801561212457600080fd5b505af1925050508015612154575060408051601f3d908101601f1916820190925261215191810190612a3b565b60015b61216057611ff561319a565b6001600160e01b0319811663bc197c8160e01b14611b6c5760405162461bcd60e51b81526004016105a290612da3565b6001600160a01b0385166122335760005b8351811015612231578281815181106121ca57634e487b7160e01b600052603260045260246000fd5b6020026020010151600560008684815181106121f657634e487b7160e01b600052603260045260246000fd5b60200260200101518152602001908152602001600020600082825461221b9190613057565b9091555061222a905081613153565b90506121a1565b505b6001600160a01b038416610f375760005b8351811015611b6c5782818151811061226d57634e487b7160e01b600052603260045260246000fd5b60200260200101516005600086848151811061229957634e487b7160e01b600052603260045260246000fd5b6020026020010151815260200190815260200160002060008282546122be919061308e565b909155506122cd905081613153565b9050612244565b8280546122e0906130ec565b90600052602060002090601f0160209004810192826123025760008555612348565b82601f1061231b57805160ff1916838001178555612348565b82800160010185558215612348579182015b8281111561234857825182559160200191906001019061232d565b50612354929150612358565b5090565b5b808211156123545760008155600101612359565b80356001600160a01b038116811461238457600080fd5b919050565b600082601f830112612399578081fd5b813560206123a682613034565b6040516123b38282613127565b8381528281019150858301600585901b870184018810156123d2578586fd5b855b858110156123f0578135845292840192908401906001016123d4565b5090979650505050505050565b600082601f83011261240d578081fd5b81356001600160401b0381111561242657612426613184565b60405161243d601f8301601f191660200182613127565b818152846020838601011115612451578283fd5b816020850160208301379081016020019190915292915050565b6000806040838503121561247d578182fd5b6124868361236d565b91506124946020840161236d565b90509250929050565b600080600080600060a086880312156124b4578081fd5b6124bd8661236d565b94506124cb6020870161236d565b935060408601356001600160401b03808211156124e6578283fd5b6124f289838a01612389565b94506060880135915080821115612507578283fd5b61251389838a01612389565b93506080880135915080821115612528578283fd5b50612535888289016123fd565b9150509295509295909350565b600080600080600060a08688031215612559578081fd5b6125628661236d565b94506125706020870161236d565b9350604086013592506060860135915060808601356001600160401b03811115612598578182fd5b612535888289016123fd565b600080600080608085870312156125b9578384fd5b6125c28561236d565b93506020808601356001600160401b03808211156125de578586fd5b6125ea89838a01612389565b955060408801359150808211156125ff578485fd5b818801915088601f830112612612578485fd5b813561261d81613034565b60405161262a8282613127565b8281528581019150848601600584901b860187018d1015612649578889fd5b885b8481101561268257813586811115612661578a8bfd5b61266f8f8a838b01016123fd565b855250928701929087019060010161264b565b50909750505050606088013592508083111561269c578384fd5b50506126aa878288016123fd565b91505092959194509250565b6000806000606084860312156126ca578081fd5b6126d38461236d565b925060208401356001600160401b03808211156126ee578283fd5b6126fa87838801612389565b9350604086013591508082111561270f578283fd5b5061271c86828701612389565b9150509250925092565b6000806000806080858703121561273b578182fd5b6127448561236d565b935060208501356001600160401b038082111561275f578384fd5b61276b88838901612389565b94506040870135915080821115612780578384fd5b61278c88838901612389565b935060608701359150808211156127a1578283fd5b506126aa878288016123fd565b600080604083850312156127c0578182fd5b6127c98361236d565b9150602083013580151581146127dd578182fd5b809150509250929050565b600080604083850312156127fa578182fd5b6128038361236d565b946020939093013593505050565b60008060008060808587031215612826578182fd5b61282f8561236d565b93506020850135925060408501356001600160401b0380821115612851578384fd5b61278c888389016123fd565b600080600060608486031215612871578081fd5b61287a8461236d565b95602085013595506040909401359392505050565b600080600080608085870312156128a4578182fd5b6128ad8561236d565b9350602085013592506040850135915060608501356001600160401b038111156128d5578182fd5b6126aa878288016123fd565b600080604083850312156128f3578182fd5b82356001600160401b0380821115612909578384fd5b818501915085601f83011261291c578384fd5b8135602061292982613034565b6040516129368282613127565b8381528281019150858301600585901b870184018b1015612955578889fd5b8896505b8487101561297e5761296a8161236d565b835260019690960195918301918301612959565b5096505086013592505080821115612994578283fd5b506129a185828601612389565b9150509250929050565b6000602082840312156129bc578081fd5b81356001600160401b038111156129d1578182fd5b6129dd84828501612389565b949350505050565b6000602082840312156129f6578081fd5b5035919050565b60008060408385031215612a0f578182fd5b823591506124946020840161236d565b600060208284031215612a30578081fd5b8135611ea78161323b565b600060208284031215612a4c578081fd5b8151611ea78161323b565b600060208284031215612a68578081fd5b81356001600160401b03811115612a7d578182fd5b6129dd848285016123fd565b60008060408385031215612a9b578182fd5b8235915060208301356001600160401b03811115612ab7578182fd5b6129a1858286016123fd565b6000815180845260208085019450808401835b83811015612af257815187529582019590820190600101612ad6565b509495945050505050565b60008151808452612b158160208601602086016130a5565b601f01601f19169290920160200192915050565b8054600090600181811c9080831680612b4357607f831692505b6020808410821415612b6357634e487b7160e01b86526022600452602486fd5b818015612b775760018114612b8857612bb5565b60ff19861689528489019650612bb5565b60008881526020902060005b86811015612bad5781548b820152908501908301612b94565b505084890196505b50505050505092915050565b60006129dd612bd08386612b29565b84612b29565b7f416363657373436f6e74726f6c3a206163636f756e7420000000000000000000815260008351612c0e8160178501602088016130a5565b7001034b99036b4b9b9b4b733903937b6329607d1b6017918401918201528351612c3f8160288401602088016130a5565b01602801949350505050565b6001600160a01b0386811682528516602082015260a060408201819052600090612c7790830186612ac3565b8281036060840152612c898186612ac3565b90508281036080840152612c9d8185612afd565b98975050505050505050565b6001600160a01b03868116825285166020820152604081018490526060810183905260a060808201819052600090612ce390830184612afd565b979650505050505050565b6000602080830181845280855180835260408601915060408160051b8701019250838701855b82811015612d4257603f19888603018452612d30858351612afd565b94509285019290850190600101612d14565b5092979650505050505050565b602081526000611ea76020830184612ac3565b604081526000612d756040830185612ac3565b8281036020840152612d878185612ac3565b95945050505050565b602081526000611ea76020830184612afd565b60208082526028908201527f455243313135353a204552433131353552656365697665722072656a656374656040820152676420746f6b656e7360c01b606082015260800190565b60208082526024908201527f455243313135353a206275726e20616d6f756e7420657863656564732062616c604082015263616e636560e01b606082015260800190565b60208082526029908201527f455243313135353a2063616c6c6572206973206e6f74206f776e6572206e6f7260408201526808185c1c1c9bdd995960ba1b606082015260800190565b60208082526028908201527f45384d696e7461626c654e66743a206f6e65206f6620746f6b656e73206973206040820152676578697374696e6760c01b606082015260800190565b60208082526025908201527f455243313135353a207472616e7366657220746f20746865207a65726f206164604082015264647265737360d81b606082015260800190565b60208082526023908201527f455243313135353a206275726e2066726f6d20746865207a65726f206164647260408201526265737360e81b606082015260800190565b6020808252602a908201527f455243313135353a20696e73756666696369656e742062616c616e636520666f60408201526939103a3930b739b332b960b11b606082015260800190565b60208082526028908201527f455243313135353a2069647320616e6420616d6f756e7473206c656e677468206040820152670dad2e6dac2e8c6d60c31b606082015260800190565b60208082526021908201527f455243313135353a206d696e7420746f20746865207a65726f206164647265736040820152607360f81b606082015260800190565b8281526040602082015260006129dd6040830184612afd565b60006001600160401b0382111561304d5761304d613184565b5060051b60200190565b6000821982111561306a5761306a61316e565b500190565b60008160001904831182151516156130895761308961316e565b500290565b6000828210156130a0576130a061316e565b500390565b60005b838110156130c05781810151838201526020016130a8565b838111156130cf576000848401525b50505050565b6000816130e4576130e461316e565b506000190190565b600181811c9082168061310057607f821691505b6020821081141561312157634e487b7160e01b600052602260045260246000fd5b50919050565b601f8201601f191681016001600160401b038111828210171561314c5761314c613184565b6040525050565b60006000198214156131675761316761316e565b5060010190565b634e487b7160e01b600052601160045260246000fd5b634e487b7160e01b600052604160045260246000fd5b600060033d11156131af57600481823e5160e01c5b90565b600060443d10156131c05790565b6040516003193d81016004833e81513d6001600160401b0381602484011181841117156131ef57505050505090565b82850191508151818111156132075750505050505090565b843d87010160208285010111156132215750505050505090565b61323060208286010187613127565b509095945050505050565b6001600160e01b0319811681146109c357600080fdfe9f2df0fed2c77648de5860a4cc508cd0818c85b8b8a1ab4ceeef8d981c8956a6a2646970667358221220f9678d7d9ae24122752d39e491b317146a1a3ffa447ed1e55854f91724ee1a2364736f6c63430008040033",
  "devdoc": {
    "kind": "dev",
    "methods": {
      "balanceOf(address,uint256)": {
        "details": "See {IERC1155-balanceOf}. Requirements: - `account` cannot be the zero address."
      },
      "balanceOfBatch(address[],uint256[])": {
        "details": "See {IERC1155-balanceOfBatch}. Requirements: - `accounts` and `ids` must have the same length."
      },
      "exists(uint256)": {
        "details": "Indicates whether any token exist with a given id, or not."
      },
      "getRoleAdmin(bytes32)": {
        "details": "Returns the admin role that controls `role`. See {grantRole} and {revokeRole}. To change a role's admin, use {_setRoleAdmin}."
      },
      "grantRole(bytes32,address)": {
        "details": "Grants `role` to `account`. If `account` had not been already granted `role`, emits a {RoleGranted} event. Requirements: - the caller must have ``role``'s admin role."
      },
      "hasRole(bytes32,address)": {
        "details": "Returns `true` if `account` has been granted `role`."
      },
      "isApprovedForAll(address,address)": {
        "details": "See {IERC1155-isApprovedForAll}."
      },
      "paused()": {
        "details": "Returns true if the contract is paused, and false otherwise."
      },
      "renounceRole(bytes32,address)": {
        "details": "Revokes `role` from the calling account. Roles are often managed via {grantRole} and {revokeRole}: this function's purpose is to provide a mechanism for accounts to lose their privileges if they are compromised (such as when a trusted device is misplaced). If the calling account had been revoked `role`, emits a {RoleRevoked} event. Requirements: - the caller must be `account`."
      },
      "revokeRole(bytes32,address)": {
        "details": "Revokes `role` from `account`. If `account` had been granted `role`, emits a {RoleRevoked} event. Requirements: - the caller must have ``role``'s admin role."
      },
      "safeBatchTransferFrom(address,address,uint256[],uint256[],bytes)": {
        "details": "See {IERC1155-safeBatchTransferFrom}."
      },
      "safeTransferFrom(address,address,uint256,uint256,bytes)": {
        "details": "See {IERC1155-safeTransferFrom}."
      },
      "setApprovalForAll(address,bool)": {
        "details": "See {IERC1155-setApprovalForAll}."
      },
      "totalSupply(uint256)": {
        "details": "Total amount of tokens in with a given id."
      }
    },
    "version": 1
  },
  "userdoc": {
    "kind": "user",
    "methods": {},
    "version": 1
  },
  "storageLayout": {
    "storage": [
      {
        "astId": 604,
        "contract": "contracts/E8MintableNft.sol:E8MintableNft",
        "label": "_balances",
        "offset": 0,
        "slot": "0",
        "type": "t_mapping(t_uint256,t_mapping(t_address,t_uint256))"
      },
      {
        "astId": 610,
        "contract": "contracts/E8MintableNft.sol:E8MintableNft",
        "label": "_operatorApprovals",
        "offset": 0,
        "slot": "1",
        "type": "t_mapping(t_address,t_mapping(t_address,t_bool))"
      },
      {
        "astId": 612,
        "contract": "contracts/E8MintableNft.sol:E8MintableNft",
        "label": "_uri",
        "offset": 0,
        "slot": "2",
        "type": "t_string_storage"
      },
      {
        "astId": 24,
        "contract": "contracts/E8MintableNft.sol:E8MintableNft",
        "label": "_roles",
        "offset": 0,
        "slot": "3",
        "type": "t_mapping(t_bytes32,t_struct(RoleData)19_storage)"
      },
      {
        "astId": 504,
        "contract": "contracts/E8MintableNft.sol:E8MintableNft",
        "label": "_paused",
        "offset": 0,
        "slot": "4",
        "type": "t_bool"
      },
      {
        "astId": 1916,
        "contract": "contracts/E8MintableNft.sol:E8MintableNft",
        "label": "_totalSupply",
        "offset": 0,
        "slot": "5",
        "type": "t_mapping(t_uint256,t_uint256)"
      },
      {
        "astId": 3593,
        "contract": "contracts/E8MintableNft.sol:E8MintableNft",
        "label": "_tokenIdCounter",
        "offset": 0,
        "slot": "6",
        "type": "t_struct(Counter)2455_storage"
      },
      {
        "astId": 3596,
        "contract": "contracts/E8MintableNft.sol:E8MintableNft",
        "label": "baseURI",
        "offset": 0,
        "slot": "7",
        "type": "t_string_storage"
      },
      {
        "astId": 3600,
        "contract": "contracts/E8MintableNft.sol:E8MintableNft",
        "label": "idToUri",
        "offset": 0,
        "slot": "8",
        "type": "t_mapping(t_uint256,t_string_storage)"
      }
    ],
    "types": {
      "t_address": {
        "encoding": "inplace",
        "label": "address",
        "numberOfBytes": "20"
      },
      "t_bool": {
        "encoding": "inplace",
        "label": "bool",
        "numberOfBytes": "1"
      },
      "t_bytes32": {
        "encoding": "inplace",
        "label": "bytes32",
        "numberOfBytes": "32"
      },
      "t_mapping(t_address,t_bool)": {
        "encoding": "mapping",
        "key": "t_address",
        "label": "mapping(address => bool)",
        "numberOfBytes": "32",
        "value": "t_bool"
      },
      "t_mapping(t_address,t_mapping(t_address,t_bool))": {
        "encoding": "mapping",
        "key": "t_address",
        "label": "mapping(address => mapping(address => bool))",
        "numberOfBytes": "32",
        "value": "t_mapping(t_address,t_bool)"
      },
      "t_mapping(t_address,t_uint256)": {
        "encoding": "mapping",
        "key": "t_address",
        "label": "mapping(address => uint256)",
        "numberOfBytes": "32",
        "value": "t_uint256"
      },
      "t_mapping(t_bytes32,t_struct(RoleData)19_storage)": {
        "encoding": "mapping",
        "key": "t_bytes32",
        "label": "mapping(bytes32 => struct AccessControl.RoleData)",
        "numberOfBytes": "32",
        "value": "t_struct(RoleData)19_storage"
      },
      "t_mapping(t_uint256,t_mapping(t_address,t_uint256))": {
        "encoding": "mapping",
        "key": "t_uint256",
        "label": "mapping(uint256 => mapping(address => uint256))",
        "numberOfBytes": "32",
        "value": "t_mapping(t_address,t_uint256)"
      },
      "t_mapping(t_uint256,t_string_storage)": {
        "encoding": "mapping",
        "key": "t_uint256",
        "label": "mapping(uint256 => string)",
        "numberOfBytes": "32",
        "value": "t_string_storage"
      },
      "t_mapping(t_uint256,t_uint256)": {
        "encoding": "mapping",
        "key": "t_uint256",
        "label": "mapping(uint256 => uint256)",
        "numberOfBytes": "32",
        "value": "t_uint256"
      },
      "t_string_storage": {
        "encoding": "bytes",
        "label": "string",
        "numberOfBytes": "32"
      },
      "t_struct(Counter)2455_storage": {
        "encoding": "inplace",
        "label": "struct Counters.Counter",
        "members": [
          {
            "astId": 2454,
            "contract": "contracts/E8MintableNft.sol:E8MintableNft",
            "label": "_value",
            "offset": 0,
            "slot": "0",
            "type": "t_uint256"
          }
        ],
        "numberOfBytes": "32"
      },
      "t_struct(RoleData)19_storage": {
        "encoding": "inplace",
        "label": "struct AccessControl.RoleData",
        "members": [
          {
            "astId": 16,
            "contract": "contracts/E8MintableNft.sol:E8MintableNft",
            "label": "members",
            "offset": 0,
            "slot": "0",
            "type": "t_mapping(t_address,t_bool)"
          },
          {
            "astId": 18,
            "contract": "contracts/E8MintableNft.sol:E8MintableNft",
            "label": "adminRole",
            "offset": 0,
            "slot": "1",
            "type": "t_bytes32"
          }
        ],
        "numberOfBytes": "64"
      },
      "t_uint256": {
        "encoding": "inplace",
        "label": "uint256",
        "numberOfBytes": "32"
      }
    }
  }
}